:020000040800F2
:100000000004002085E90008E3E90008E3E90008AE
:10001000E3E90008E3E90008E3E900080000000064
:10002000000000000000000000000000E3E90008FC
:10003000E3E9000800000000E3E90008A528000843
:10004000E3E90008E3E90008E3E90008E3E9000860
:10005000E3E90008E3E90008E3E90008E3E9000850
:10006000E3E90008E3E90008E3E90008E3E9000840
:10007000E3E90008E3E90008E3E90008E3E9000830
:10008000E3E90008E3E90008E3E90008E3E9000820
:10009000E3E90008E3E90008E3E90008F52C0008BB
:1000A000E3E90008E3E90008E3E90008E3E9000800
:1000B000852A0008E3E90008E3E90008E3E900080D
:1000C000E3E90008E3E90008E3E90008E3E90008E0
:1000D000E3E90008912B0008E3E90008E3E90008E0
:1000E000E3E90008E3E90008E3E90008E3E90008C0
:1000F000E3E90008E3E90008E3E90008E3E90008B0
:10010000E3E90008E3E90008E3E90008E3E900089F
:10011000352C0008E3E90008E3E90008E3E90008FA
:10012000E3E90008E3E90008E3E90008E3E900087F
:1001300000000000000000000000000000000000BF
:1001400000000000000000000000000000000000AF
:10015000000000000000000000000000000000009F
:10016000000000000000000000000000000000008F
:10017000000000000000000000000000000000007F
:10018000000000000000000000000000000000006F
:10019000000000000000000000000000000000005F
:1001A000000000000000000000000000000000004F
:1001B000000000000000000000000000000000003F
:1001C000000000000000000000000000000000002F
:1001D000000000000000000000000000000000001F
:0401E0005FF8E0F1F3
:1001E80008B540F21C60074BC2F200001B1A062B30
:1001F80000D808BD40F20003C0F20003002BF8D07D
:100208009847F6E71F06002008B540F21C6040F248
:100218001C63C2F20000C2F200031B1A9B1003EB1E
:10022800D373591000D108BD40F20002C0F2000299
:10023800002AF8D09047F6E710B540F21C64C2F2E5
:100248000004237873B9FFF7CBFF40F20003C0F234
:1002580000032BB140F2E410C0F60000AFF30080B9
:100268000123237010BD00BF08B540F20003C0F29F
:1002780000034BB140F2E41040F22061C0F60000E8
:10028800C2F20001AFF3008040F21C60C2F200002D
:1002980003682BB140F20003C0F2000303B1984792
:1002A800BDE80840FFF7B0BF80B582B000AF034695
:1002B800FB7100BF08484FF0800107F041FA034680
:1002C800002BF7D0FB799BB20348194607F0E6F8F4
:1002D80007F10807BD4680BD004C004080B582B0DC
:1002E80000AF786008E07B681B781846FFF7DCFFF2
:1002F8007B6803F101037B607B681B78002BF2D1DC
:1003080007F10807BD4680BD80B582B000AF4FF049
:100318000003FB714FF000033B60104B1B6803F1B7
:1003280001033B6007E03A680C4B1B689A4202D213
:100338004FF000030DE00A484FF0200107F000FAE3
:100348000346012BEFD1064807F0BCF80346FB71C2
:10035800FB79184607F10807BD4680BD4007002015
:10036800004C004080B584B000AF7860154B1B6826
:1003780003F10103FB6004E0FA68124B1B689A4220
:100388001AD311484FF0200107F0DAF90346012B80
:10039800F2D10D4807F096F80346FB727B68FA7AAB
:1003A8001A707B6803F101037B60064B1B6803F13D
:1003B8000103FB6000BFE4E700BF07F11007BD467B
:1003C80080BD00BF40070020004C004080B500AF52
:1003D80007484FF4004103F0ADFD0346002B02D05F
:1003E8004FF0010301E04FF00003184680BD00BF45
:1003F800000C014080B582B000AF4FF000033B60B5
:100408004FF000033B713B461846FFF7ABFF3B46F6
:100418001846084908F098FC0346002B02D04FF014
:10042800010301E04FF00003184607F10807BD4635
:1004380080BD00BFE8E9000880B500AF20484FF450
:10044800804103F0CFFD00F049F81E484FF000014D
:100458004FF4807207F060FE1B4B4FF000021A60E9
:100468001A48FFF73BFF1A4B1B6803F10502194BAB
:100478001A6005E0174B1A68154B1B689A4204D39B
:10048800104B1B78002BF5D000E000BF0C484FF450
:10049800804103F0B5FD0B4B1B78002B0CD00948AD
:1004A8000D4908F051FC0346002B02D04FF0010320
:1004B80004E04FF0000301E04FF0FF33184680BD21
:1004C800000C0140A0090020A00A0020F0E9000863
:1004D8004007002038060020E8E9000880B500AF92
:1004E80017484FF000014FF4807207F015FE154BC6
:1004F8004FF000021A601448FFF7F0FE134B1B6818
:1005080003F16402124B1A6000E000BF104B1A6836
:100518000E4B1B689A4205D30A4B1B68084AD35CEA
:100528000A2BF2D106480B4908F00EFC0346002BB3
:1005380002D04FF0010301E04FF00003184680BDE0
:10054800A0090020A00A0020F8E9000840070020C0
:1005580038060020E8E9000880B592B000AF78605E
:1005680007F108024FF0400310464FF000011A4609
:1005780007F0D2FD31484FF4804103F033FD4FF0CE
:10058800640000F023FF2E484FF000014FF4807202
:1005980007F0C2FD2B4B4FF000021A60786808F094
:1005A800C1FC034603F10A0307F108021046194685
:1005B800254A7B6802F058F907F108031846FFF747
:1005C8008DFE224B1B6803F16402214B1A6000E088
:1005D80000BF1F4B1A681D4B1B689A4205D3194B65
:1005E8001B68174AD35C0A2BF2D11548194908F041
:1005F800ABFB0346002B0ED110484FF4804103F0AB
:10060800FFFC4FF0640000F0E1FE1348FFF766FEC0
:100618004FF001030DE009484FF4804103F0F0FC6E
:100628004FF0640000F0D2FE0B48FFF757FE4FF082
:100638000003184607F14807BD4680BD000C01407D
:10064800A0090020A00A002004EA000840070020B2
:100658003806002014EA00081CEA000880B592B0A9
:1006680000AF786007F108024FF0400310464FF0E2
:1006780000011A4607F050FD33484FF4804103F05B
:10068800B1FC4FF0640000F0A1FE30484FF00001CB
:100698004FF4807207F040FD2D4B4FF000021A60B6
:1006A800786808F03FFC034603F10A0307F10802E3
:1006B80010461946274A7B6802F0D6F807F1080366
:1006C8001846FFF70BFE244B1B6803F16402234B0B
:1006D8001A6000E000BF214B1A681F4B1B689A4242
:1006E80005D31B4B1B68194AD35C0A2BF2D11C4853
:1006F800164902F0EBFE15481A4908F025FB034697
:10070800002B0ED110484FF4804103F079FC4FF0D4
:10071800640000F05BFE1448FFF7E0FD4FF00103B2
:100728000DE009484FF4804103F06AFC4FF0640083
:1007380000F04CFE0C48FFF7D1FD4FF000031846BF
:1007480007F14807BD4680BD000C0140A009002004
:10075800A00A002028EA00084007002038060020E8
:1007680038EA000814EA00081CEA000880B500AF5F
:100778001D484FF4804103F035FC1C484FF0000140
:100788004FF4807207F0C8FC194B4FF000021A6052
:100798001848FFF7A3FD184B1B6803F10502174B18
:1007A8001A6005E0154B1A68134B1B689A4204D36C
:1007B8000E4B1B78002BF5D000E000BF0B4B1B78CD
:1007C800002B0CD009480E4908F0BEFA0346002B4E
:1007D80002D04FF0010304E04FF0000301E04FF0B6
:1007E800FF33184680BD00BF000C0140A00900205F
:1007F800A00A002044EA000840070020380600202C
:1008080014EA000880B582B000AF0C484FF480416C
:1008180003F0E8FB4FF000037B6007E0FFF75EFEA4
:100828000346002B7B6803F101037B607B68042B84
:10083800F4DD184607F10807BD4680BD000C0140ED
:1008480080B500AFFFF74AFE0346184680BD00BFDB
:1008580080B500AF04484FF4804103F0D1FBFFF7A7
:100868003DFE0346184680BD000C014080B400AF31
:10087800BD4680BC704700BF80B400AF4FF0000396
:100888001846BD4680BC704780B483B000AF78601E
:10089800184607F10C07BD4680BC704780B582B08A
:1008A80000AF7860FFF792FD0346002B03D078680D
:1008B800FFF714FD02E0034802F008FE07F10807FD
:1008C800BD4680BD58EA000880B5C6B000AF07F144
:1008D8000C03186007F10803196007F104031A6094
:1008E80007F114031A464FF4807310464FF00001C5
:1008F8001A4607F011FC4FF00003C7F8143181E0E5
:10090800D7F814314FEA430307F10C021268D318E1
:100918001B78392B15D9D7F814314FEA430307F15F
:100928000C021268D3181B78A3F13703DBB24FEA25
:100938000313DAB207F11401D7F81431CB181A707F
:1009480014E0D7F814314FEA430307F10C02126898
:10095800D3181B78A3F13003DBB24FEA0313DAB2E2
:1009680007F11401D7F81431CB181A70D7F81431DD
:100978004FEA430303F1010307F10C021268D3188D
:100988001B78392B1CD907F11402D7F81431D31866
:100998001A78D7F814314FEA430303F1010307F13A
:1009A8000C010968CB181B78D318DBB2A3F1370305
:1009B800DAB207F11401D7F81431CB181A701BE01A
:1009C80007F11402D7F81431D3181A78D7F814316C
:1009D8004FEA430303F1010307F10C010968CB183F
:1009E8001B78D318DBB2A3F13003DAB207F1140194
:1009F800D7F81431CB181A70D7F8143103F1010362
:100A0800C7F8143107F104031B684FEAD372D318EF
:100A18004FEA63031A46D7F814319A423FF770AF8A
:100A280007F11403184608F07DFA034607F1080198
:100A380007F11402086811464FF0000207F082FA25
:100A480007F58C77BD4680BD80B596B000AFF860DD
:100A5800B9607A6007F114024FF0400310464FF076
:100A680000011A4607F058FB4FF000037B6526E0AB
:100A78007B6D4FEA43037A6DF9688A1812784FEA5A
:100A88001212D2B219498A5C07F15801CB1803F83F
:100A9800442C7B6D4FEA430303F101037A6DF96837
:100AA8008A18127802F00F0210498A5C07F158017F
:100AB800CB1803F8442C7B6D03F101037B657A6D39
:100AC8007B689A42D4DB07F11403184608F02AFA27
:100AD800034607F11402B86811464FF0000207F008
:100AE80031FA07F15807BD4680BD00BF68EA000823
:100AF80080B586B000AFF8600B467A60FB72F86884
:100B080008F010FA0346FA68D3183B614FF0010366
:100B1800FB7521E0FA7AFB7DD31A3A69D018796817
:100B2800154BA3FB01234FEAD30213464FEA830375
:100B38009B184FEA4303CA1AD3B203F13003DBB25E
:100B480003707A680C4BA3FB02134FEAD3037B6054
:100B5800FB7D03F10103FB75FA7DFB7A9A42D9D933
:100B6800FB7D03F1FF333A69D3184FF000021A7086
:100B780007F11807BD4680BDCDCCCCCC80B584B07C
:100B880000AF78600B46FB70786808F0CBF9034635
:100B98007A68D318FB60FB68FA781A7007F11007B7
:100BA800BD4680BD80B584B000AF78600B46FB7051
:100BB800786808F0B7F903467A68D318FB60FB78C1
:100BC8004FEA1313DBB20B4AD25CFB681A70FB685E
:100BD80003F10103FA7802F00F0206498A5C1A70E1
:100BE800FB6803F102034FF000021A7007F11007C7
:100BF800BD4680BD68EA000880B584B000AF786063
:100C08003960786808F08EF903467A68D318FB6073
:100C18003B684FEA23732C4AD25CFB681A70FB6866
:100C280003F101033A684FEA226202F00F022649F3
:100C38008A5C1A70FB6803F102033A684FEA225291
:100C480002F00F0220498A5C1A70FB6803F1030363
:100C58003A684FEA224202F00F021B498A5C1A7076
:100C6800FB6803F104033A684FEA223202F00F02EC
:100C780015498A5C1A70FB6803F105033A684FEA64
:100C8800222202F00F0210498A5C1A70FB6803F1F5
:100C980006033A684FEA221202F00F020A498A5CF8
:100CA8001A70FB6803F107033A6802F00F0206495D
:100CB8008A5C1A70FB6803F108034FF000021A708F
:100CC80007F11007BD4680BD68EA000880B483B00C
:100CD80000AF78607B68064A1068186012791A714C
:100CE8004FF00103184607F10C07BD4680BC70475A
:100CF80078EA000880B586B000AFF8600B467A60E5
:100D0800FB72FB7AF868194607F09EFF78617B69E9
:100D1800002B07D07A69FB68D21A7B689A42B8BF61
:100D2800134601E04FF00003184607F11807BD46C7
:100D380080BD00BF80B582B000AF78602448FFF75F
:100D4800C5FF234808F0EEF803461A46204BD3188F
:100D5800204A1068186012791A717A6842F20F7383
:100D68009A4207DD7B681A484FF005011A46FFF7DB
:100D7800BFFE29E07A6840F2E7339A4207DD7B68D4
:100D880013484FF004011A46FFF7B2FE1CE07B68D7
:100D9800632B07DD7B680E484FF003011A46FFF707
:100DA800A7FE11E07B68092B07DD7B6808484FF038
:100DB80002011A46FFF79CFE06E07B6804484FF0E4
:100DC80001011A46FFF794FE07F10807BD4680BDEA
:100DD8004006002080EA000880B596B000AFF860B1
:100DE800B9607A603B6007F110024FF0400310468B
:100DF8004FF000011A4607F08FF9224802F066FB0F
:100E08004FF0000387F857303B6803F110031B6865
:100E1800002B01D13B6E2FE03B6803F110031B68E8
:100E2800184606F091FD034687F8573097F8573073
:100E3800012B1FD13B6803F114031B68002B19D049
:100E48003B6803F118031B681A463B6803F1140357
:100E58001B68D31A03F1FF333B653B6803F11403A6
:100E68001B6807F11002104619464FF000023B6D4F
:100E780007F068F84FF00003184607F15807BD4619
:100E880080BD00BF88EA000880B596B000AFF86062
:100E9800B9607A603B6007F110024FF040031046DA
:100EA8004FF000011A4607F037F94FF0000387F8B2
:100EB80057303B6803F110031B68002B01D13B6ED0
:100EC8003EE03B6803F110031B68184606F03CFD42
:100ED800034687F8573097F85730012B2ED13B68D7
:100EE80003F114031B68002B28D03B6803F1180397
:100EF8001B681A463B6803F114031B68D31A03F1F5
:100F0800FF333B653B6803F114031B6807F11002CC
:100F1800104619464FF000023B6D07F013F807F131
:100F280010031846FFF79AFB0346012B03D1074825
:100F380002F0CCFA02E0064802F0C8FA4FF00003CB
:100F4800184607F15807BD4680BD00BFA0EA000853
:100F5800B0EA000880B584B000AFF860B9607A6084
:100F68003B60054802F0B2FA4FF00003184607F15B
:100F78001007BD4680BD00BFB8EA000890B5B1B003
:100F880002AFF860B9607A604FF00003C7F8B43078
:100F98004FF00003C7F8B0304FF00003C7F8AC308B
:100FA800BB68C7F8A83007F18C034FF000021A603D
:100FB80003F104034FF000021A6003F104034FF039
:100FC80000021A8003F102034FF000021A7003F1C5
:100FD80001034FF00003C7F8A4304FF00003C7F82F
:100FE800A03007F178034FF000021A6003F1040300
:100FF8004FF000021A6003F104034FF000021A6078
:1010080003F104034FF000021A6003F104034FF0E8
:1010180000021A6003F104034FF00003C7F8A03080
:1010280021E0D7F8A030BA68D3181B78232B0DD04D
:10103800D7F8A030BA68D3181B780A2B06D0D7F88F
:10104800A030BA68D3181B78002B06D1D7F8A03087
:1010580003F10103C7F8A4300AE0D7F8A03003F180
:101068000103C7F8A030D7F8A0207B689A42D8DBE4
:10107800D7F8A430002B02D14FF0000374E14FF0F1
:101088000003C7F89C30D2E0D7F89C30BA68D31870
:101098001B782C2B15D0D7F89C30BA68D3181B783E
:1010A8000A2B0ED0D7F89C30BA68D3181B78232B9C
:1010B80007D0D7F89C30BA68D3181B78002B40F0BB
:1010C8008980D7F8AC30002B52DDD7F8A8301A68E1
:1010D800A84B9A4203D14FF00003C7F8B030D7F8B5
:1010E800B030C7F89830D7F8B010A34B83FB010392
:1010F8004FEAE3024FEAE173D21A13464FEA830339
:101108009B184FEA83029B18CA1A4FEA820307F119
:10111800B802D318D7F8A82043F8A42CD7F89830E9
:10112800032B22D801A050F823F000BF4511000876
:10113800731100085711000873110008D7F8A83078
:101148001A688C4B9A4212D04FF0FF330CE1D7F853
:10115800AC300A2BA8BF0A2307F18C021046D7F837
:10116800A8101A4606F01EFF02E000BF00E000BF0C
:10117800D7F8B03003F10103C7F8B030D7F8B03072
:10118800182B5CDC4FF00003C7F8AC30D7F89C3064
:1011980003F10103BA68D318C7F8A830D7F8B0101C
:1011A800754B83FB01234FEAE3024FEAE173D21A3E
:1011B80013464FEA83039B184FEA83029B18CA1A07
:1011C8004FEA820307F1B800C318D7F8A82043F8FC
:1011D800A42C26E0D7F8AC10684BA3FB01234FEAF8
:1011E800131213464FEA83039B184FEA8303CA1A64
:1011F800D7F89C30B968CB18197807F1B80083186C
:101208000A4603F8402CD7F8AC3003F10103C7F8BD
:10121800AC3007F17802D7F8AC30D3184FF00002A1
:101228001A70D7F89C3003F10103C7F89C30D7F83F
:101238009C20D7F8A4309A42FFF626AF00E000BF02
:10124800D7F8B030192B02DDD7F8A4308CE0D7F8E6
:10125800B030032B02DCD7F8A43085E04FF0000350
:10126800C7F8A0304FF0FF33C7F8B430444B4FF005
:1012780000021A6050E04349D7F8A02013464FEA0D
:1012880043039B184FEA8303CB181B6807F18C02B2
:101298001046194607F058FD0346002B36D1394948
:1012A800D7F8A02013464FEA43039B184FEA83035D
:1012B800CB1803F108031B881A46FB681340002B60
:1012C80038D131484FF000014FF0C80206F024FF32
:1012D8002C49D7F8A02013464FEA43039B184FEA3E
:1012E8008303CB1803F104031C6807F18C0207F190
:1012F8001403D7F8A410009179680191F868114691
:10130800D7F8B020A047C7F8B40013E0D7F8A0304A
:1013180003F10103C7F8A0301A49D7F8A0201346F3
:101328004FEA43039B184FEA8303CB181B68002B33
:10133800A1D100E000BFD7F8B430002B0ADD104B74
:101348001B68002B0ED0FB68012B0BD10E4802F056
:10135800BDF807E0D7F8B430002B03DAD7F8A4308B
:10136800C7F8B430D7F8B430184607F1BC07BD4603
:1013780090BD00BF2A53532C1F85EB51CDCCCCCC4C
:101388003C060020000000204006002080B485B004
:1013980000AF78604FF00003FB600EE04FF00003F1
:1013A800FB7203E0FB7A03F10103FB72FB7A062B65
:1013B800F8D9FB6803F10103FB60FA687B689A427D
:1013C800ECD307F11407BD4680BC704780B584B0E4
:1013D80000AF78604FF00003FB6007E04FF46170E6
:1013E800FFF7D4FFFB6803F10103FB60FA687B6831
:1013F8009A42F3D307F11007BD4680BD80B483B08D
:1014080000AF03463960FB7197F90730002B0DDAFE
:101418000E49FB7903F00F03A3F104033A68D2B233
:101428004FEA0212D2B2CB181A760AE0084997F9A5
:1014380007303A68D2B24FEA0212D2B2CB1883F818
:10144800002307F10C07BD4680BC704700ED00E0A3
:1014580000E100E080B582B000AF78607A686FF094
:101468007F439A4202D94FF0010316E00D4B7A6888
:1014780022F07F4202F1FF325A604FF0FF304FF006
:101488000F01FFF7BBFF074B4FF000029A60054BB7
:101498004FF007021A604FF00003184607F10807DB
:1014A800BD4680BD10E000E080B500AF00F00EF949
:1014B80000F056FA00F038F901F0B4FC4FF00400DF
:1014C80002F090F980BD00BF80B588B000AF7860A9
:1014D8007B683B614FF00003BB824FF00003FB8247
:1014E8004FF000033B834FF00003BB834FF00C0326
:1014F8007B8307F110031348194605F06FFD4FF081
:1015080000033B814FF000037B814FF40073BB81E4
:101518004FF00003FB8107F108030A48194605F05C
:101528004DFE084840F225514FF0010205F0ACFE8F
:1015380004484FF0010105F087FE07F12007BD467A
:1015480080BD00BF0038014080B586B000AF78602C
:101558007B68BB604FF00003BB814FF00003FB8149
:101568004FF000033B824FF00003BB824FF00C03A7
:101578007B8207F108030A48194605F02FFD084841
:1015880040F225514FF0010205F07EFE04484FF06D
:10159800010105F059FE07F11807BD4680BD00BFDF
:1015A800004C004080B584B000AF4FF008004FF009
:1015B800010103F05BFA4FF08003BB804FF0040396
:1015C800FB7107F104031A48194602F0C5FB4FF0F6
:1015D80001004FF0010103F049FA4FF001004FF00C
:1015E800070102F019FE4FF08003BB604FF00003C3
:1015F8003B734FF008037B734FF00103BB7307F194
:101608000803184602F00AFA4FF017033B704FF030
:101618000F037B704FF00F03BB704FF00103FB709B
:101628003B46184602F03EF807F11007BD4680BD5C
:10163800000C014080B584B000AF4FF001004FF0BE
:10164800010103F033FA1F4B1A681F4BA3FB021367
:101658004FEAD3439BB203F1FF339BB23B804FF079
:101668001E03BB804FF00003FB804FF000037B801C
:101678003B464FF08040194603F0ECFD4FF08040A8
:101688004FF0010104F0EAF94FF01C033B734FF0EF
:1016980000037B734FF00003BB734FF00103FB7330
:1016A80007F10C03184601F0FDFF4FF080404FF0A2
:1016B80001014FF0010204F019FA07F11007BD46C5
:1016C80080BD00BF3000002083DE1B4380B500AF23
:1016D80045F6FD204FF0010103F0C8F94FF007006F
:1016E8004FF0010103F0E2F94FF410304FF001011F
:1016F80003F0DCF94FF480204FF0010103F0D6F934
:101708004FF400204FF0010103F0D0F94FF40070BE
:101718004FF0010103F0AAF94FF040004FF001012A
:1017280003F084F980BD00BF80B582B000AF88485F
:101738004FF0010102F0F0FC4FF01803FB714FF479
:101748000073BB804FF00303BB7107F104038148AA
:10175800194602F001FB4FF04803FB714FF4806318
:10176800BB8007F104037B48194602F0F5FA4FF0F5
:101778001803FB714FF48063BB804FF00303BB7108
:1017880007F104037448194602F0E6FA4FF04803DB
:10179800FB714FF40063BB8007F104036E481946E0
:1017A80002F0DAFA4FF40053BB804FF01403FB71D8
:1017B8004FF00303BB7107F104036748194602F0B1
:1017C800CBFA4FF48043BB804FF01403FB714FF00A
:1017D8000303BB7107F104035F48194602F0BCFA22
:1017E8004FF40043BB804FF02803FB714FF0030315
:1017F800BB7107F104035948194602F0ADFA4FF4DA
:101808008043BB804FF01003FB714FF00303BB71A3
:1018180007F104035148194602F09EFA4FF02203DB
:10182800BB804FF02803FB714FF00303BB7107F136
:1018380004034848194602F08FFA4FF02003BB8092
:101848004FF02803FB714FF00303BB7107F104034A
:101858004148194602F080FA4FF48063BB804FF08C
:101868002803FB714FF00303BB7107F104033B48E6
:10187800194602F071FA4FF08803BB804FF010034D
:10188800FB714FF00303BB7107F10403314819469C
:1018980002F062FA41F20203BB804FF01003FB71C1
:1018A8004FF00303BB7107F104032C48194602F0FB
:1018B80053FA4FF04403BB804FF01003FB714FF015
:1018C8000303BB7107F104032248194602F044FAE6
:1018D80040F60103BB804FF01003FB714FF0030388
:1018E800BB7107F104031D48194602F035FA4FF0A1
:1018F8001103BB804FF04803FB714FF00303BB712A
:1019080007F104031348194602F026FA4FF01003B2
:10191800BB804FF04803FB714FF00303BB7107F125
:1019280004030D48194602F017FA4FF00403BB8070
:101938004FF04803FB714FF00303BB7107F1040339
:101948000648194602F008FA07F10807BD4680BDA7
:10195800000230000008014000100140000C014066
:1019680080B582B000AF4FF025033B714FF0000304
:10197800BB714FF00103FB7107F10403184601F036
:1019880091FE4FF026033B714FF00103BB714FF0FE
:101998000103FB7107F10403184601F083FE07F108
:1019A8000807BD4680BD00BF80B582B000AF0346C2
:1019B800FB7100BF08484FF0800105F0C1FE0346E7
:1019C800002BF7D0FB799BB20348194605F066FD5A
:1019D80007F10807BD4680BD0038014080B500AF5B
:1019E800FFF762FD4FF4E130FFF76EFD4FF416404C
:1019F800FFF7AAFDFFF71EFEFFF7D4FD0F4B104AB5
:101A08001A60104B1A68104BA3FB02134FEA93138A
:101A18001846FFF71FFD0D484FF4804102F0F0FA19
:101A28000B484FF0880102F0DDFA084841F2020144
:101A380002F0D8FA00F042F9FCE700BFFC0B0020E6
:101A4800B119000830000020D34D6210000C01408D
:101A58000008014080B500AF074B1B782A2B0AD13C
:101A68004FF0010004494FF48072FFF787FA024BE8
:101A78004FF000021A7080BD5007002080B483B078
:101A880000AF4FF000037B600A4B1B684FF0640205
:101A980002FB03F3084A82FB03124FEAA2224FEA31
:101AA800E373D31A7B607B68184607F10C07BD46C1
:101AB80080BC7047900900206766666690B585B05F
:101AC80002AF4FF000037B601A4B1B6848F6A04238
:101AD80002FB03F3184A82FB03124FEAA2224FEAE1
:101AE800E373D31A7B6015484FF000014FF04002B2
:101AF80006F012FBFFF7C2FF04460E4B1B6848F6C0
:101B0800A04202FB03F30C4A82FB03124FEAA22213
:101B18004FEAE373D21A0A4B1B68009201930748F5
:101B28004FF02B01074A234600F09EFE07F10C07F1
:101B3800BD4690BD9809002067666666500900207A
:101B480090090020E8EA000880B485B000AF4FF0A3
:101B58000B03FB604FF00B03BB604FF00B037B6084
:101B6800FB684FF4616202FB03F1BA6813464FEA5F
:101B780003139B1A4FEA8303CA187B68D3181846C5
:101B880007F11407BD4680BC704700BF80B500AFA1
:101B980003F074F9FFF7D8FF0346184603F006F977
:101BA80003F06CF980BD00BF80B584B000AF7860E9
:101BB8004FF00003FB6003F0CBF80346FB6007F12E
:101BC8000C03184605F0C8FE0346184605F06EFEDD
:101BD80003460448194601F079FC07F11007BD4691
:101BE80080BD00BF10EB000880B400AFBD4680BCCC
:101BF800704700BF80B500AF4FF0C0504FF00101F3
:101C080002F054FF4FF0010002F070FB01F006FEF5
:101C18004FF0010002F0F4FD00BF4FF0410002F068
:101C2800D5FF0346002BF8D04FF4807002F01EFE5B
:101C38004FF0010002F02CFE03F030F903F01EF91A
:101C480003F01CF947F6FF7003F0C8F803F016F923
:101C580080BD00BF80B58CB000AF4FF075037B61CD
:101C68004FF00B033B614FF01303FB604FF0090388
:101C7800BB604FF02D037B604FF000033B604FF0DB
:101C8800FF333B623B46184606F0BAFBF862FB6A34
:101C9800B3F1FF3F03D1084801F018FC07E003F057
:101CA800EDF8FB6A184603F081F803F0E7F807F14E
:101CB8003007BD4680BD00BF18EB000890B583B063
:101CC80002AF4FF0040001F03BFE03461A464AF209
:101CD800A6539A4210D0354801F0F8FBFFF78AFF67
:101CE800334801F0F3FBFFF7B5FF4FF004004AF269
:101CF800A65101F00BFE21E04FF07B0002F066FFD9
:101D08000346002B03D02B4801F0E0FB09E04FF01D
:101D18007A0002F05BFF0346002B02D0264801F050
:101D2800D5FB264801F0D2FB03F0B8F84FF00100CC
:101D38004FF0010102F0C6FF03F0A0F802F086FFA1
:101D480000E000BFFFF786FE1D4B1A681D4B1B689D
:101D58009A42F6D2FFF7B2FE1B48FEF79FFDFFF747
:101D68008DFE0146194B1A68194B1C68174B1B68E6
:101D780048F6A04000FB03F3164880FB03C04FEA77
:101D8800A0204FEAE373C31A00931348234601F0D7
:101D98009DFB02F0DDFF03461846FFF705FF094BE0
:101DA8001B6803F57A72064B1A60CAE744EB000811
:101DB80064EB00087CEB00089CEB0008BCEB000817
:101DC80044070020400700205009002098090020FF
:101DD8009009002067666666DCEB000880B485B071
:101DE80000AF78604FF00003FB60FB6803F101036C
:101DF800FB607A68FB68D3181B78002BF5D1FB6869
:101E0800184607F11407BD4680BC704780B48BB0F4
:101E180000AFF860B9607A603B603B687B624FF066
:101E280000033B62BB68102B02D94FF0000389E026
:101E3800FB68002B06DA4FF001033B62FB68C3F135
:101E48000003FB60FB68BA68B3FBF2F2B96801FBF8
:101E580002F29B1ABB61BB69092B05DCBB69DBB2CB
:101E680003F13003DBB20EE07B68002B02D04FF0A9
:101E7800410301E04FF06103BA69D2B29B18DBB2AB
:101E8800A3F10A03DBB27A6A13707B6A03F10103D8
:101E98007B62FA68BB68B2FBF3F3FB60FB68002B5C
:101EA800D0DC7A6A3B68D31AFB610BE07B6A4FF09F
:101EB80030021A707B6A03F101037B62FB6903F14C
:101EC8000103FB61FA693B6B9A42EFD33B6A002B33
:101ED80007D07B6A4FF02D021A707B6A03F1010369
:101EE8007B627B6A4FF000021A707A6A3B68D31AE9
:101EF8007B614FF00003FB611DE03A68FB69D31872
:101F08001B78FB743A68FB69D3187969FA698A1AED
:101F180002F1FF3239688A1812781A707A69FB69F7
:101F2800D31A03F1FF333A68D318FA7C1A70FB69A5
:101F380003F10103FB617B694FEA5302FB699A4293
:101F4800DBD87B69184607F12C07BD4680BC704773
:101F580080B483B000AF0346FB7163469A681146AC
:101F68005A688A1A02F1010211461A68914202D38C
:101F78004FF000030CE09A68F97911709A6802F141
:101F880001029A609B684FF000021A704FF001033B
:101F9800184607F10C07BD4680BC704780B590B065
:101FA80002AF7A603B60F860B960FB683B61C7E0EC
:101FB8003B691A46FB68D31A03F101031A46BB684A
:101FC8009A4280F0D08097F83730252B08D097F8C0
:101FD800373007F1080294461846FFF7B9FFAFE01B
:101FE8004FF0000387F836307B681B7887F8373066
:101FF8007B6803F101037B6097F83730302B22D1DF
:102008007B681B7887F837307B6803F101037B60B6
:1020180097F83730002B00F0A88097F837302F2B2F
:1020280009D997F83730392B05D897F83730A3F105
:10203800300387F836307B681B7887F837307B6841
:1020480003F101037B6097F83730642B10D0642BC1
:1020580007DC582B29D0632B4AD0002B00F087804F
:1020680065E0752B04D0782B1FD0732B4DD05EE024
:102078003B6803F104023A601B681A4697F8361069
:1020880007F11403009110464FF00A014FF00002C7
:10209800FFF7BCFE386307F1140307F10802944602
:1020A8001846396B00F06EF84AE03B6803F1040209
:1020B8003A601B68194697F83730582B14BF00232D
:1020C8000123DBB21A4697F8360007F11403009093
:1020D80008464FF01001FFF799FE386307F1140323
:1020E80007F1080294461846396B00F04BF827E0D0
:1020F8003B6803F104023A601B68DBB207F108028F
:1021080094461846FFF724FF1AE03B6803F10402DF
:102118003A601B68FB62F86AFFF760FE034607F146
:1021280008029446F86A194600F02CF808E097F877
:10213800373007F1080294461846FFF709FF00BF39
:102148007B681B7887F8373097F83730002B0CBF3F
:1021580000230123DBB27A6802F101027A60002BC6
:102168007FF426AF04E000BF02E000BF00E000BF3C
:102178003B691A46FB68D31A184607F13807BD466B
:1021880080BD00BF80B485B000AF78603960634619
:102198005A6811469A688A1A11461A688A1802F10A
:1021A800FF313A68914209D25A6811469A688A1AE8
:1021B80011461A688A1802F1FF323A604FF000029D
:1021C800FA600DE07968FA688A1811789A681170CF
:1021D8009A6802F101029A60FA6802F10102FA6053
:1021E800F9683A689142EDD39B684FF000021A7083
:1021F8003B68184607F11407BD4680BC704700BF0E
:102208000CB480B584B000AF7860396007F11C0366
:10221800BB6078683968BA69BB68FFF7BFFEF860C9
:10222800FB68184607F11007BD46BDE8804002B0BC
:10223800704700BF80B487B000AFF860B9607A60BB
:102248004FF000037B610FE07B69FA68D3187A6965
:10225800B9688A1812781A707B6903F101037B61E7
:102268007B6803F1FF337B607B68002B14D07B69AC
:10227800BA68D3181B78002BE6D10DE07B69FA68A1
:10228800D3184FF000021A707B6903F101037B61D8
:102298007B6803F1FF337B607B68002BEED1FB6822
:1022A800184607F11C07BD4680BC704780B58CB046
:1022B80000AFF860B9607A603B604FF000037B6163
:1022C800BB68002B03D0BB6803F1FF33BB604FF042
:1022D80000037B61B4E24FF00003FB6203E0FB6A9A
:1022E80003F10103FB627A68FB6AD3181B78252B7C
:1022F80005D07A68FB6AD3181B78002BEFD1FA6AED
:10230800BB689A420DD9BB68F86879681A46FFF726
:1023180091FFFA68BB68D318FB604FF00003BB60FD
:102328000DE0FB6AF86879681A46FFF783FFFA68D8
:10233800FB6AD318FB60BA68FB6AD31ABB607A6978
:10234800FB6AD3187B617A68FB6AD3187B607B6869
:102358001B78252B40F074827B6803F101037B60B6
:102368004FF000037B624FF02003FB767B681B78FD
:102378007A6802F101027A60A3F12503532B00F277
:102388003B8201A252F823F0D72700080128000851
:102398000128000801280008012800080128000871
:1023A8000128000801280008012800080128000861
:1023B80001280008E1240008E1240008E1240008BD
:1023C800E1240008E1240008E1240008E1240008D1
:1023D800E1240008E1240008E1240008012800089D
:1023E8000128000801280008012800080128000821
:1023F8000128000801280008012800080128000811
:102408000128000801280008012800080128000800
:1024180001280008012800080128000801280008F0
:1024280001280008012800080128000801280008E0
:1024380001280008012800080128000801280008D0
:1024480001280008012800080128000801280008C0
:102458000128000871260008012800080128000842
:1024680001280008012800080128000801280008A0
:102478000128000801280008012800080128000890
:102488001F25000853250008012800080128000816
:102498000128000801280008532500080128000821
:1024A8000128000801280008012800080128000860
:1024B80001280008712600080128000801280008E2
:1024C800832500080128000857260008012800086D
:1024D80001280008712600087B6803F1FF331B7888
:1024E800302B05D17B6A002B02D14FF03003FB76ED
:1024F8007A6A13464FEA83039B184FEA43037B62C9
:102508007B6803F1FF331B781A467B6AD318A3F163
:1025180030037B622AE73B6803F104023A601B68D8
:10252800BB62BB68002B0BD0BB6ADAB2FB681A70BF
:10253800FB6803F10103FB60BB6803F1FF33BB6079
:102548007B6903F101037B617AE13B6803F10402D3
:102558003A601B68BB62BB6A002B07DABB6AC3F12F
:102568000003BB624FF00103FB6102E04FF0000380
:10257800FB614FF00A033B6282E03B6803F104020F
:102588003A601B683B614FF00003FB6203E0FB6AA3
:1025980003F10103FB623A69FB6AD3181B78002B2D
:1025A800F5D17A6AFB6A9A4205D97A6AFB6AD21A25
:1025B8007B69D3187B61FA6ABB689A420DD9BB68FC
:1025C800F86839691A46FFF735FEFA68BB68D31808
:1025D800FB604FF00003BB6034E0FB6AF8683969C0
:1025E8001A46FFF727FEFA68FB6AD318FB60BA6839
:1025F800FB6AD31ABB607A6AFB6A9A4222D97A6A62
:10260800FB6AD31A7B627A6ABB689A4201D9BB68B3
:102618007B627B6AC3F10003BB6007E0FB684FF095
:1026280020021A70FB6803F10103FB607B6A002B30
:102638000CBF00230123DBB27A6A02F1FF327A620F
:10264800002BEBD17A69FB6AD3187B61F8E03B6811
:1026580003F104023A601B68BB624FF00A033B6255
:102668004FF00003FB610BE03B6803F104023A60A2
:102678001B68BB624FF010033B624FF00003FB6125
:102688004FF00103FB6208E0FB6A3A6A02FB03F3BE
:10269800FB627B6A03F1FF337B62FB6A3A6A02FBE7
:1026A80003F2BB6A9A4209D8FB6A3A6A02FB03F250
:1026B8003B6AB2FBF3F2FB6A9A42E5D0FB69002B56
:1026C80003D07B6A03F1FF337B62FB69002B18D0D0
:1026D800BB68002B15D0FB7E302B12D1FB684FF066
:1026E8002D021A70FB6803F10103FB60BB6803F15C
:1026F800FF33BB607B6903F101037B614FF000038B
:10270800FB617B6A012B22D97A6A4FF6FF739A42E2
:102718001DD87B6A03F1FF337B6215E0BB68002B91
:102728000AD0FB68FA7E1A70FB6803F10103FB60AC
:10273800BB6803F1FF33BB607B6903F101037B6175
:102748007B6A03F1FF337B627B6A002BE6D1FB696E
:10275800002B38D0BB68002B35D0FB684FF02D021A
:102768001A70FB6803F10103FB60BB6803F1FF33D8
:10277800BB607B6903F101037B6124E0BB68002B2C
:1027880018D0374B1A68B96AFB6AB1FBF3F3396A98
:10279800B3FBF1F1386A00FB01F15B1AD3181A7820
:1027A800FB681A70FB6803F10103FB60BB6803F167
:1027B800FF33BB607B6903F101037B61FA6A3B6A03
:1027C800B2FBF3F3FB62FB6A002BD7D138E0BB689E
:1027D800002B0CD07B6813F8012CFB681A70FB687F
:1027E80003F10103FB60BB6803F1FF33BB607B6946
:1027F80003F101037B6123E0BB68042B0ED9F86861
:1028080018494FF00502FFF715FDFB6803F10503B2
:10281800FB60BB68A3F10503BB600CE0BB68F8680C
:1028280010491A46FFF706FDFA68BB68D318FB6023
:102838004FF00003BB607B6903F105037B6100BFB8
:102848007B681B78002B7FF446ADFB684FF00002D5
:102858001A707B69184607F13007BD4680BD00BF76
:1028680000EC000804EC00080CB480B584B000AF9C
:102878007860396007F11C03BB6078683968BA6909
:10288800BB68FFF713FDF860FB68184607F11007EF
:10289800BD46BDE8804002B0704700BF80B500AFBC
:1028A8006A4B1B6803F10102684B1A60674B1A6890
:1028B800674BA3FB02134FEA93134FF47A7101FBA2
:1028C80003F3D31A002B0BD1624B1A68624B1B68B7
:1028D800D31A1A46614B1A605E4B1A685E4B1A602F
:1028E8005F484FF0010101F025FB0346002B08D19A
:1028F8005B484FF0080101F075FB5A4B4FF000029E
:102908001A6057484FF0010101F014FB0346012BF0
:102918000ED1544B1B6803F10102524B1A60514B04
:102928001B68F92B04D94E484FF0080101F068FBE9
:102938004B484FF0100101F0FDFA0346002B08D177
:1029480047484FF0800101F04DFB474B4FF0000224
:102958001A6043484FF0100101F0ECFA0346012BCE
:102968000ED1414B1B6803F101023F4B1A603E4BED
:102978001B68F92B04D93A484FF0800101F040FB5D
:102988003A484FF0100101F0D5FA0346002B08D160
:1029980037484FF0020101F025FB364B4FF000029B
:1029A8001A6032484FF0100101F0C4FA0346012BB7
:1029B8000ED1304B1B6803F101022E4B1A602D4BD0
:1029C8001B68F92B04D92A484FF0020101F018FBC3
:1029D80027484FF0040101F0ADFA0346002B08D157
:1029E80023484FF4805101F0FDFA234B4FF00002C9
:1029F8001A601F484FF0040101F09CFA0346012BAE
:102A08000ED11D4B1B6803F101021B4B1A601A4BB8
:102A18001B68F92B04D916484FF4805101F0F0FADD
:102A2800104B1A6840F2CF739A420F4B1A6840F263
:102A3800CF739A420F4B1A6840F2CF739A420E4BEB
:102A48001A6840F2CF739A4280BD00BF4007002049
:102A5800D34D6210900900209409002098090020A5
:102A680000080140F80B0020F00A00200010014087
:102A7800000C0140EC0A0020E80A002080B500AFF5
:102A88004FF080404FF0010104F022F80346002B7C
:102A980072D04FF080404FF0010104F049F8374BF5
:102AA8001B6803F10102354B1A60344B1B68402B3D
:102AB80044D833484FF0040101F068FA0346002B6C
:102AC80014BF00230123DBB22D484FF004011A463E
:102AD80001F0A4FA2A484FF0400101F057FA0346E2
:102AE800002B14BF00230123DBB225484FF040011F
:102AF8001A4601F093FA23484FF0010101F046FA13
:102B08000346002B14BF00230123DBB21D484FF0FE
:102B180001011A4601F082FA1A484FF4006101F0E7
:102B280035FA0346002B14BF00230123DBB21548F6
:102B38004FF400611A4601F071FA13E010484FF0A3
:102B4800040101F04FFA0E484FF0400101F04AFA33
:102B58000C484FF0010101F045FA0A484FF40061B2
:102B680001F040FA054B1A6841F63F139A4203D91F
:102B7800024B4FF000021A6080BD00BFF40B00202A
:102B880000080140000C014080B582B000AF234826
:102B980040F2255104F006FE0346012B39D11F48A7
:102BA80004F090FC0346FB711D4B1B68FF2B02DCF5
:102BB800FB792A2B03D11A4B4FF000021A60FB79DC
:102BC800232B16D1164B1B68164AF979D154144B8E
:102BD8001B6803F10102124B1A60114B1B68124863
:102BE80010491A4605F0DEF90D4B4FF000021A6045
:102BF8000AE00B4B1B680B4AF979D154084B1B6848
:102C080003F10102064B1A60044840F2255104F012
:102C18002BFE07F10807BD4680BD00BF0038014004
:102C28009C090020F40A00205007002080B582B0DB
:102C380000AF294840F2255104F0B4FD0346012BAA
:102C480045D1254804F03EFC0346FB71FB79234837
:102C5800194600F03BFC224B1B68FF2B02DCFB797A
:102C68002A2B03D11E4B4FF000021A60FB79232B4D
:102C78001DD11B4B1B681B4AF979D154184B1B6893
:102C880003F10102164B1A60154B1B6816481549CB
:102C98001A4605F087F913484FF000014FF4807287
:102CA80005F03AFA0E4B4FF000021A600AE00C4B9E
:102CB8001B680C4AF979D154094B1B6803F10102CE
:102CC800074B1A60044840F2255104F0CDFD07F186
:102CD8000807BD4680BD00BF004C00400CEC000852
:102CE800A00A0020A00900205008002080B500AFED
:102CF8004FF0800000F05EFF0346002B09D0054B23
:102D08001B6803F10102034B1A604FF0800000F0CA
:102D180079FF80BD9009002080B485B000AF78604D
:102D28000B4B1B68002B02D1094B0A4A1A60084B4F
:102D38001B68FB60064B1A687B68D218044B1A6044
:102D4800FB68184607F11407BD4680BC704700BFF2
:102D5800A40A0020040C002080B483B000AF78607F
:102D680039604FF0FF33184607F10C07BD4680BCA9
:102D7800704700BF80B483B000AF78604FF0FF3376
:102D8800184607F10C07BD4680BC704780B483B075
:102D980000AF786039603B684FF400525A604FF0DA
:102DA8000003184607F10C07BD4680BC704700BFFA
:102DB80080B483B000AF78604FF00103184607F184
:102DC8000C07BD4680BC704780B485B000AFF86082
:102DD800B9607A604FF00003184607F11407BD4642
:102DE80080BC704780B485B000AFF860B9607A6085
:102DF8007B68184607F11407BD4680BC704700BFC2
:102E080080B485B000AFF860B9607A607B68184616
:102E180007F11407BD4680BC704700BF80B400AFFF
:102E2800FEE700BF80B500AF154B154A126842F0A7
:102E380001021A60124A124B5968124B0B40536038
:102E48000F4A0F4B1B6823F0847323F480331360FD
:102E58000B4B0B4A126822F480221A60084B084A6E
:102E6800526822F4FE025A60054B4FF41F029A6022
:102E780000F07EF8044B4FF000629A6080BD00BFFE
:102E8800001002400000FFF800ED00E080B485B0BB
:102E980000AF4FF00003FB604FF00003BB604FF042
:102EA80000037B602D4B5B6803F00C03FB60FB6841
:102EB800042B07D0082B09D0002B35D1284B294AE1
:102EC8001A6035E0264B274A1A6031E0234B5B68CD
:102ED80003F47013BB60214B5B6803F480337B60A1
:102EE800BB684FEA934303F10203BB607B68002B86
:102EF80006D1BB681C4A02FB03F2194B1A6017E0A3
:102F0800164B5B6803F40033002B06D0BB68164AE7
:102F180002FB03F2124B1A600AE0BB68114A02FB7B
:102F280003F20F4B1A6003E00D4B0E4A1A6000BF04
:102F38000A4B5B6803F0F0034FEA13130B4AD35CA8
:102F4800DBB2FB60064B1A68FB6822FA03F2044BFB
:102F58001A6007F11407BD4680BC70470010024094
:102F68003000002000127A0000093D0034000020E3
:102F780080B500AF00F002F880BD00BF80B483B018
:102F880000AF4FF000037B604FF000033B603B4B0A
:102F98003A4A126842F480321A60384B1B6803F4CC
:102FA80000333B607B6803F101037B603B68002BC7
:102FB80003D17B68B3F5A06FEFD1304B1B6803F4E6
:102FC8000033002B03D04FF001033B6002E04FF0C9
:102FD80000033B603B68012B4BD1294B284A126800
:102FE80042F010021A60264B254A126822F00302AA
:102FF8001A60234B224A126842F002021A601F4BE1
:103008001E4A52685A601D4B1C4A52685A601B4B34
:103018001A4A526842F480625A60184B174A52683A
:1030280022F47C125A60154B144A526842F4E81292
:103038005A60124B114A126842F080721A6000BF3F
:103048000E4B1B6803F00073002BF9D00B4B0B4A97
:10305800526822F003025A60084B084A526842F04C
:1030680002025A6000BF054B5B6803F00C03082B93
:10307800F9D107F10C07BD4680BC7047001002402B
:103088000020024080B582B000AF0346FB710D4BB3
:103098001B68002B08D00B4B1B68FA791A7003F1D8
:1030A8000102084B1A6008E0074B1B68002B04D08C
:1030B800054B1B68FA791046984707F10807BD4683
:1030C80080BD00BFA80A0020FC0B002080B582B09C
:1030D80000AF786008E07B681B787A6802F101022B
:1030E8007A601846FFF7CEFF7B681B78002BF2D179
:1030F80007F10807BD4680BD80B584B000AF786091
:1031080039600D4B1B68FB600B4B7A681A6008E04E
:103118003B681B783A6802F101023A601846FFF7EB
:10312800B1FF3B681B78002BF2D1034BFA681A6099
:1031380007F11007BD4680BDFC0B002080B58EB09E
:1031480000AF786039607B681B78FB777B6803F198
:1031580001037B60FB7F002B00F0B181FB7F252BF7
:1031680004D0FB7F1846FFF78DFFA7E14FF000035F
:103178007B627B681B78FB777B6803F101037B60CC
:10318800FB7F302B0AD14FF001037B627B681B78F1
:10319800FB777B6803F101037B600CE0FB7F2D2B41
:1031A80009D14FF002037B627B681B78FB777B6851
:1031B80003F101037B604FF00003BB6213E0BA6ABE
:1031C80013464FEA83039B184FEA43031A46FB7FD3
:1031D800D318A3F13003BB627B681B78FB777B684D
:1031E80003F101037B60FB7F2F2B02D9FB7F392B77
:1031F800E5D9FB7F6C2B02D0FB7F4C2B0AD17B6A75
:1032080043F004037B627B681B78FB777B6803F1E0
:1032180001037B60FB7F002B00F05381FB7FBB77B2
:10322800BB7F602B03D9BB7FA3F12003BB77BB7F98
:10323800A3F14203162B00F28C8001A252F823F06E
:103248003B330008273300084B3300085B33000882
:103258005B3300085B3300085B3300085B3300080E
:103268005B3300085B3300085B3300085B330008FE
:103278005B330008433300085B3300085B33000806
:103288005B330008A53200085B3300084B330008A5
:103298005B3300085B330008533300083B6803F1D5
:1032A80004023A601B68BB614FF00003FB6203E055
:1032B800FB6A03F10103FB62BA69FB6AD3181B7846
:1032C800002BF5D103E04FF02000FFF7DBFE7B6A0F
:1032D80003F00203002B0CD1FA6ABB6A9A422CBF96
:1032E80000230123DBB2FA6A02F10102FA62002B21
:1032F800E9D1B869FFF7EAFE03E04FF02000FFF7D5
:10330800C1FEFA6ABB6A9A422CBF00230123DBB2D2
:10331800FA6A02F10102FA62002BEED1CEE03B68B4
:1033280003F104023A601B68DBB21846FFF7AAFEF5
:10333800C4E04FF002037B6310E04FF008037B63A7
:103348000CE04FF00A037B6308E04FF010037B6347
:1033580004E0FB7F1846FFF795FEAFE07B6A03F0B9
:103368000403002B05D03B6803F104023A601B6894
:103378000DE0BB7F442B05D13B6803F104023A60A2
:103388001B6804E03B6803F104023A601B683B6277
:10339800BB7F442B0AD13B6A002B07DA3B6AC3F197
:1033A80000033B627B6A43F008037B624FF0000333
:1033B8003B633B6A7A6BB3FBF2F2796B01FB02F277
:1033C8009B1ABB773A6A7B6BB2FBF3F33B62BB7F1A
:1033D800092B0AD9FB7F782B02D14FF0270301E094
:1033E8004FF00703BA7F9B18BB77BB7F03F130030D
:1033F800DAB207F108013B6BCB181A703B6B03F18B
:1034080001033B633B6A002B02D03B6B0F2BD0D9E7
:103418007B6A03F00803002B0AD007F108023B6B14
:10342800D3184FF02D021A703B6B03F101033B6375
:103438003B6BFB627B6A03F00103002B02D04FF069
:10344800300301E04FF02003BB7703E0BB7F184651
:10345800FFF718FE7B6A03F00203002B0CD1FA6A0F
:10346800BB6A9A422CBF00230123DBB2FA6A02F13D
:103478000102FA62002BE9D13B6B03F1FF333B6396
:1034880007F108023B6BD3181B781846FFF7FAFDC3
:103498003B6B002BF0D103E04FF02000FFF7F2FD6B
:1034A800FA6ABB6A9A422CBF00230123DBB2FA6A8C
:1034B80002F10102FA62002BEED144E643E600BFB6
:1034C80000E000BF07F13807BD4680BD0FB480B5E6
:1034D80082B000AF07F114037B6038697968FFF7A1
:1034E8002DFE07F10807BD46BDE8804004B07047CF
:1034F8000EB480B585B000AF78600D4B7A681A605D
:1035080007F12003FB60F869F968FFF717FE084B1D
:103518001B684FF000021A70054B4FF000021A604A
:1035280007F11407BD46BDE8804003B0704700BFEF
:10353800A80A00200EB480B585B000AF78600B4BA8
:103548001B68FB60094B7A681A6007F12003BB60AF
:10355800F869B968FFF7F2FD044BFA681A6007F1D9
:103568001407BD46BDE8804003B07047FC0B00203F
:1035780080B588B000AFF860B9607A603B603C48BD
:10358800B968FFF7A3FF3B68022B40D0042B52D049
:10359800012B64D1FB683B614FF00003FB610BE03A
:1035A800FB693A69D3181B7832481946FFF78EFF32
:1035B800FB6903F10103FB61FA697B689A42EFDB5F
:1035C8004FF02000FFF75EFD4FF00003FB6119E0AC
:1035D800FB693A69D3181B781F2B0AD9FB693A692A
:1035E800D3181B787E2B04D8FB693A69D3181B784B
:1035F80001E04FF02E031846FFF744FDFB6903F185
:103608000103FB61FA697B689A42E1DB27E0FB680A
:10361800BB61BB691B88BA6902F10202BA6116482C
:103628001946FFF753FF7B6803F1FF337B607B6824
:10363800002BEED113E0FB687B617B691B687A691C
:1036480002F104027A610D481946FFF73FFF7B68D3
:1036580003F1FF337B607B68002BEED100BF4FF096
:103668000A00FFF70FFD07F12007BD4680BD00BF28
:1036780014EC00081CEC000824EC00082CEC0008F2
:1036880080B483B000AF7860054A7B6843F0BF63BD
:1036980043F40033D36007F10C07BD4680BC704784
:1036A80000ED00E080B487B000AF78604FF0000311
:1036B8007B614FF000033B614FF00F03FB607B68B9
:1036C800DB78002B3DD02A4BDB686FEA030303F459
:1036D800E0634FEA13237B617B69C3F104033B6119
:1036E8007B69FA6822FA03F3FB607B685B781A4609
:1036F8003B6902FA03F37B617B689B781A46FB6897
:1037080013407A6913437B617B694FEA03137B613A
:1037180018497B681B787A69D2B2CB1883F80023E2
:10372800144B7A6812784FEA5212D2B27968097843
:1037380001F01F014FF0010000FA01F143F82210D7
:1037480011E00C4B7A6812784FEA5212D2B27968BB
:10375800097801F01F014FF0010000FA01F102F1B0
:10376800200243F8221007F11C07BD4680BC7047B1
:1037780000ED00E000E100E080B483B000AF7860C5
:103788003960074A3B6823F0604323F07F03796878
:103798000B43936007F10C07BD4680BC704700BF20
:1037A80000ED00E080B483B000AF02460B46FA712A
:1037B800BB71BB79002B06D0094B094A1169FA790C
:1037C8000A431A6107E0064B054A1169FA796FEA5C
:1037D80002020A401A6107F10C07BD4680BC704717
:1037E80000ED00E080B483B000AF78607B68042B04
:1037F80006D1094B084A126842F004021A6005E033
:10380800054B054A126822F004021A6007F10C07FA
:10381800BD4680BC704700BF10E000E080B500AF37
:103828004FF0010001F0A2F94FF0000001F09EF9FD
:1038380080BD00BF80B483B000AF0346FB80044B5B
:10384800FA881A6007F10C07BD4680BC704700BFB4
:1038580004860D4280B483B000AF0346FB71044B6D
:10386800FA791A6007F10C07BD4680BC704700BFA3
:1038780000860D4280B483B000AF0346FB71044B51
:10388800FA791A6007F10C07BD4680BC704700BF83
:1038980088860D4280B485B000AF0346FB804FF0A8
:1038A8000003FB81094B9B8DFB81FB8923F460732B
:1038B800FB81FA89FB881343FB81044BFA899A85BB
:1038C80007F11407BD4680BC704700BF006C00407C
:1038D80080B485B000AF0346FB714FF00003FB8155
:1038E800094B9B8DFB81FB8923F07F03FB81FB79CF
:1038F8009AB2FB891343FB81034BFA899A8507F136
:103908001407BD4680BC7047006C004080B485B089
:1039180000AF02460B46FA80BB804FF00003FB6005
:10392800064BFB60FA88FB68D318FB60FB68BA8813
:103938001A6007F11407BD4680BC7047006C004050
:1039480080B485B000AF0346FB804FF00003FB60F6
:10395800074BFB60FA88FB68D318FB60FB681B8881
:103968009BB2184607F11407BD4680BC704700BFDC
:10397800006C004080B400AF034B1B68DBB21846F4
:10398800BD4680BC704700BFA0860D4280B400AF22
:10399800054B054A928E92B242F0010292B29A8683
:1039A800BD4680BC704700BF006C004080B400AFCB
:1039B800034B1B68DBB21846BD4680BC704700BF8E
:1039C800A4860D4280B400AF054B054A928E92B290
:1039D80042F0020292B29A86BD4680BC704700BF90
:1039E800006C004080B400AF0A4B4FF000021A6030
:1039F800084B4FF000025A60064B4FF000029A60E5
:103A0800044B4FF00002DA60024B034A5A61BD468C
:103A180080BC704700040140FFFF0F0080B485B0F0
:103A280000AF78604FF00003FB60354BFB607B68AC
:103A38009B79002B51D0324B314A11687A68126851
:103A48006FEA02020A401A602D4B2D4A51687A68C3
:103A580012686FEA02020A405A607B681B79FA68AA
:103A6800D318FB60FB68FA6811687A6812680A4321
:103A78001A60234B224A91687A6812686FEA020238
:103A88000A409A601E4B1E4AD1687A6812686FEA2B
:103A980002020A40DA607B685B79102B0ED1184B62
:103AA800174A91687A6812680A439A60144B144A54
:103AB800D1687A6812680A43DA601CE0104BFB6030
:103AC8007B685B79FA68D318FB60FB68FA68116851
:103AD8007A6812680A431A600DE07B681B79FA68F5
:103AE800D318FB60FB68FA6811687A6812686FEA95
:103AF80002020A401A6007F11407BD4680BC7047ED
:103B08000004014080B483B000AF78607B684FF058
:103B180000021A607B684FF000021A717B684FF050
:103B28000C025A717B684FF000029A7107F10C077A
:103B3800BD4680BC704700BF80B483B000AF7860DA
:103B4800054B054A11697A680A431A6107F10C079F
:103B5800BD4680BC704700BF0004014080B485B0FA
:103B680000AF78604FF00003FB730A4B5A697B681B
:103B78001340002B03D04FF00103FB7302E04FF01A
:103B88000003FB73FB7B184607F11407BD4680BC96
:103B9800704700BF0004014080B483B000AF786074
:103BA800034B7A685A6107F10C07BD4680BC704721
:103BB8000004014080B485B000AF78604FF0000386
:103BC800FB734FF00003BB600D4B1A687B68134012
:103BD800BB600B4B5A697B681340002B06D0BB684F
:103BE800002B03D04FF00103FB7302E04FF00003FA
:103BF800FB73FB7B184607F11407BD4680BC704772
:103C08000004014080B483B000AF7860034B7A6849
:103C18005A6107F10C07BD4680BC7047000401409B
:103C280080B582B000AF78607A683C4B9A420CD17C
:103C38004FF004004FF0010100F058FF4FF004006E
:103C48004FF0000100F052FF64E07A68344B9A426A
:103C58000CD14FF008004FF0010100F047FF4FF082
:103C680008004FF0000100F041FF53E07A682D4B47
:103C78009A420CD14FF010004FF0010100F036FFCE
:103C88004FF010004FF0000100F030FF42E07A687A
:103C9800254B9A420CD14FF020004FF0010100F063
:103CA80025FF4FF020004FF0000100F01FFF31E02A
:103CB8007A681E4B9A420CD14FF040004FF0010138
:103CC80000F014FF4FF040004FF0000100F00EFF2D
:103CD80020E07A68164B9A420CD14FF080004FF0E2
:103CE800010100F003FF4FF080004FF0000100F0E9
:103CF800FDFE0FE07A680F4B9A420BD14FF48070AB
:103D08004FF0010100F0F2FE4FF480704FF0000117
:103D180000F0ECFE07F10807BD4680BD0008014031
:103D2800000C01400010014000140140001801403F
:103D3800001C01400020014080B500AF4FF0010099
:103D48004FF0010100F0D2FE4FF001004FF00001EA
:103D580000F0CCFE80BD00BF80B489B000AF7860B1
:103D680039604FF00003FB614FF000033B614FF0F7
:103D78000003BB614FF00003FB604FF000037B6161
:103D88004FF00003BB603B68DB7803F00F03FB6177
:103D98003B68DB7803F01003002B04D03B689B786A
:103DA800FA691343FB613B681B88DBB2002B4ED0DA
:103DB8007B681B687B614FF00003BB6141E0BB6916
:103DC8004FF0010202FA03F3FB603B681B881A46B6
:103DD800FB6813403B613A69FB689A422DD1BB6985
:103DE8004FEA8303FB60FB684FF00F0202FA03F30C
:103DF800BB60BB686FEA03037A6913407B61FB68A9
:103E0800FA6902FA03F37A6913437B613B68DB784A
:103E1800282B07D1BB694FF0010202FA03F27B6835
:103E28005A610AE03B68DB78482B06D1BB694FF042
:103E3800010202FA03F27B681A61BB6903F101030C
:103E4800BB61BB69072BBAD97B687A691A603B6882
:103E58001B88FF2B53D97B685B687B614FF000039D
:103E6800BB6146E0BB6903F108034FF0010202FAA7
:103E780003F3FB603B681B881A46FB6813403B61F1
:103E88003A69FB689A4230D1BB694FEA8303FB6009
:103E9800FB684FF00F0202FA03F3BB60BB686FEADE
:103EA80003037A6913407B61FB68FA6902FA03F33A
:103EB8007A6913437B613B68DB78282B08D1BB699F
:103EC80003F108034FF0010202FA03F27B685A611A
:103ED8003B68DB78482B08D1BB6903F108034FF036
:103EE800010202FA03F27B681A61BB6903F101035C
:103EF800BB61BB69072BB5D97B687A695A6007F142
:103F08002407BD4680BC704780B483B000AF78609A
:103F18007B684FF6FF721A807B684FF002029A7036
:103F28007B684FF00402DA7007F10C07BD4680BCCD
:103F3800704700BF80B485B000AF78600B467B80C7
:103F48004FF00003FB737B689A687B881340002B53
:103F580003D04FF00103FB7302E04FF00003FB7343
:103F6800FB7B184607F11407BD4680BC704700BFAD
:103F780080B483B000AF78607B689B689BB21846BA
:103F880007F10C07BD4680BC704700BF80B485B000
:103F980000AF78600B467B804FF00003FB737B68B3
:103FA800DA687B881340002B03D04FF00103FB73C2
:103FB80002E04FF00003FB73FB7B184607F1140780
:103FC800BD4680BC704700BF80B483B000AF786046
:103FD8007B68DB689BB2184607F10C07BD4680BCBE
:103FE800704700BF80B483B000AF78600B467B8019
:103FF8007A887B681A6107F10C07BD4680BC704758
:1040080080B483B000AF78600B467B807A887B6889
:104018005A6107F10C07BD4680BC704780B483B075
:1040280000AF786013460A467A807B707B78002B55
:1040380003D07A887B681A6102E07A887B685A61C3
:1040480007F10C07BD4680BC704700BF80B483B041
:1040580000AF78600B467B807A887B68DA6007F16E
:104068000C07BD4680BC704780B485B000AF78604F
:104078000B467B804FF48033FB607B88FA681343E0
:10408800FB607B68FA689A617A887B689A617B68CA
:10409800FA689A617B689B69FB607B689B69FB6037
:1040A80007F11407BD4680BC704700BF80B485B0D7
:1040B80000AF02460B46FA71BB714FF00003FB607C
:1040C8000C4B1B68FB60FA684FF680731340FB606B
:1040D800FB794FEA0313FA681343FB60BB79FA686C
:1040E8001343FB60034BFA681A6007F11407BD46D7
:1040F80080BC70470000014080B483B000AF034625
:10410800FB71044BFA791A6007F10C07BD4680BCB5
:10411800704700BF1C00204280B487B000AF7860B1
:104128000B46FB704FF000033B614FF00003FB6050
:104138004FF000037B614FF00003BB607B68002BEE
:1041480003DA344BDB697B6102E0324B5B687B61ED
:104158007B6803F470234FEA1343BB607B684FEA24
:1041680003434FEA13433B617B6803F44013B3F501
:10417800401F0AD17B6923F070637B61254B254A78
:10418800526822F070625A6026E07B6803F480135C
:10419800002B10D0BB684FF0030202FA03F3FB6058
:1041A800FB686FEA03037A6913407B617B6943F01C
:1041B80070637B6110E07B684FEA53534FEA031347
:1041C8003A6902FA03F36FEA03037A6913407B61E1
:1041D8007B6943F070637B61FB78002B0AD07B68B6
:1041E8004FEA53534FEA03133A6902FA03F37A6921
:1041F80013437B617B68002B03DA064B7A69DA612B
:1042080002E0044B7A695A6007F11C07BD4680BC7E
:10421800704700BF0000014090B484B000AF024670
:104228000B46FA71BB714FF00003FB60BB7903F0DA
:1042380003034FEA83034FF00F0202FA03F3FB6014
:104248001A4BBA794FEA9202D2B21849B8794FEAB2
:104258009000C0B200F1020051F82000F9686FEA3E
:104268000101014002F1020243F822100F4BBA7912
:104278004FEA9202D2B20D49B8794FEA9000C0B223
:1042880000F1020051F82000FC79B97901F003012E
:104298004FEA810104FA01F1014302F1020243F8F5
:1042A800221007F11007BD4690BC7047000001407E
:1042B80080B483B000AF7860034B7A681A6007F166
:1042C8000C07BD4680BC7047DC00204280B500AFBB
:1042D8004FF080504FF0010100F028FC4FF0805063
:1042E8004FF0000100F022FC80BD00BF80B483B015
:1042F80000AF0346FB71044BFA791A6007F10C070B
:10430800BD4680BC704700BF20000E4280B483B019
:1043180000AF0346FB71044BFA791A6007F10C07EA
:10432800BD4680BC704700BF10000E4280B485B007
:1043380000AF78604FF00003FB60094B1B68FB601F
:10434800FB6823F0E003FB60FA687B681343FB60BB
:10435800034BFA681A6007F11407BD4680BC704722
:104368000070004080B483B000AF0346FB71044B7B
:10437800FA791A6007F10C07BD4680BC704700BF88
:10438800A0000E4280B485B000AF78600B46FB7089
:104398004FF00003FB60124B1B68FB60FB6823F0C7
:1043A8000303FB60FA687B681343FB600C4BFA68F5
:1043B8001A600C4B0B4A126942F004021A61FB782E
:1043C800012B01D130BF00E020BF064B054A12691E
:1043D80022F004021A6107F11407BD4680BC704739
:1043E8000070004000ED00E080B400AF0A4B0A4ABC
:1043F800126842F004021A60074B074A126842F03A
:1044080002021A60054B054A126942F004021A6159
:1044180030BFBD4680BC70470070004000ED00E032
:1044280080B485B000AF78604FF00003FB730A4B8F
:104438005A687B681340002B03D04FF00103FB73CD
:1044480002E04FF00003FB73FB7B184607F11407EB
:10445800BD4680BC704700BF0070004080B483B088
:1044680000AF7860064B064A11687A684FEA820204
:104478000A431A6007F10C07BD4680BC704700BFAD
:104488000070004080B400AF134B134A126842F02A
:1044980001021A60104A104B5968104B0B405360C8
:1044A8000D4A0D4B1B6823F0847323F4803313608B
:1044B800094B094A126822F480221A60064B064A00
:1044C800526822F4FE025A60034B4FF41F029A60AE
:1044D800BD4680BC704700BF001002400000FFF8D6
:1044E80080B483B000AF7860134B134A126822F48B
:1044F80080321A60104B104A126822F480221A6027
:104508007B68B3F5803F03D0B3F5802F07D00DE06B
:10451800094B094A126842F480321A6007E0064BD8
:10452800054A126842F4A0221A6000E000BF07F1B1
:104538000C07BD4680BC70470010024080B582B0B1
:1045480000AF4FF000033B604FF00003FB714FF0EA
:104558000003BB714FF0310000F038FB0346BB711C
:104568003B6803F101033B603B68B3F5A06F02D0E1
:10457800BB79002BEED04FF0310000F027FB03464B
:10458800002B03D04FF00103FB7102E04FF0000352
:10459800FB71FB79184607F10807BD4680BD00BFCF
:1045A80080B485B000AF0346FB714FF00003FB6099
:1045B8000A4B1B68FB60FB6823F0F803FB60FB7980
:1045C8004FEAC303FA681343FB60044BFA681A60A6
:1045D80007F11407BD4680BC704700BF00100240B9
:1045E80080B483B000AF0346FB71044BFA791A60BC
:1045F80007F10C07BD4680BC704700BF000042426F
:1046080080B485B000AF786039604FF00003FB607C
:104618000A4B5B68FB60FB6823F47C13FB607A68D9
:104628003B681343FA681343FB60044BFA685A600B
:1046380007F11407BD4680BC704700BF0010024058
:1046480080B483B000AF0346FB71044BFA791A605B
:1046580007F10C07BD4680BC704700BF60004242AE
:1046680080B485B000AF78604FF00003FB60094B61
:104678005B68FB60FB6823F00303FB60FA687B68F8
:104688001343FB60034BFA685A6007F11407BD46F1
:1046980080BC70470010024080B400AF044B5B68D8
:1046A800DBB203F00C03DBB21846BD4680BC704792
:1046B8000010024080B485B000AF78604FF000036E
:1046C800FB60094B5B68FB60FB6823F0F003FB6051
:1046D800FA687B681343FB60034BFA685A6007F17A
:1046E8001407BD4680BC70470010024080B485B0F6
:1046F80000AF78604FF00003FB60094B5B68FB601C
:10470800FB6823F4E063FB60FA687B681343FB6093
:10471800034BFA685A6007F11407BD4680BC70471E
:104728000010024080B485B000AF78604FF00003FD
:10473800FB600A4B5B68FB60FB6823F46053FB601B
:104748007B684FEAC303FA681343FB60034BFA68BC
:104758005A6007F11407BD4680BC7047001002403C
:1047680080B483B000AF02460B46FA71BB71BB79C7
:10477800002B08D00C4B0C4A1278D1B2FA790A43B4
:10478800D2B21A700AE0084B074A1278D1B2FA7905
:104798006FEA0202D2B20A40D2B21A7007F10C07CD
:1047A800BD4680BC704700BF0910024080B483B08A
:1047B80000AF7860034B7A681A6007F10C07BD46B2
:1047C80080BC7047D800424280B485B000AF7860A2
:1047D8004FF00003FB60094B5B68FB60FB6823F448
:1047E8004043FB60FA687B681343FB60034BFA683D
:1047F8005A6007F11407BD4680BC7047001002409C
:1048080080B483B000AF0346FB710F4B4FF000023A
:104818001A700D4B4FF000021A70FB79012B02D071
:10482800042B05D009E0084B4FF001021A7005E08F
:10483800054B4FF005021A7000E000BF07F10C07A6
:10484800BD4680BC704700BF2010024080B483B0D2
:1048580000AF0346FB71044BFA791A6007F10C07A5
:10486800BD4680BC704700BF8004424280B483B01C
:1048780000AF7860054B054A116A7A680A431A62E4
:1048880007F10C07BD4680BC704700BF001002400E
:1048980080B483B000AF0346FB71044BFA791A6009
:1048A80007F10C07BD4680BC704700BF3C0442427C
:1048B80080B487B000AF78604FF000037B614FF0A1
:1048C80000033B614FF00003FB604FF00003BB6047
:1048D800514B5B6803F00C037B617B69042B07D0A9
:1048E800082B09D0002B35D17B684C4A1A6035E07B
:1048F8007B684A4A1A6031E0474B5B6803F47013DF
:104908003B61454B5B6803F48033FB603B694FEACE
:10491800934303F102033B61FB68002B06D13B691B
:104928003F4A02FB03F27B681A6017E03A4B5B6868
:1049380003F40033002B06D03B69394A02FB03F22B
:104948007B681A600AE03B69344A02FB03F27B6821
:104958001A6003E07B68314A1A6000BF2E4B5B681F
:1049680003F0F0037B617B694FEA13137B612D4AE7
:104978007B69D3181B78DBB2BB607B681A68BB689D
:1049880022FA03F27B685A60234B5B6803F4E06306
:104998007B617B694FEA13237B61224A7B69D318C9
:1049A8001B78DBB2BB607B685A68BB6822FA03F2EB
:1049B8007B689A60184B5B6803F460537B617B6982
:1049C8004FEAD3237B61174A7B69D3181B78DBB284
:1049D800BB607B685A68BB6822FA03F27B68DA60BE
:1049E8000D4B5B6803F440437B617B694FEA93336B
:1049F8007B610D4A7B69D3181B78DBB2BB607B688F
:104A0800DA68BB68B2FBF3F27B681A6107F11C072E
:104A1800BD4680BC704700BF0010024000127A00FB
:104A280000093D00440000205400002080B483B0F9
:104A380000AF78600B46FB70FB78002B06D00A4B62
:104A4800094A51697A680A435A6107E0064B064ADF
:104A580051697A686FEA02020A405A6107F10C0745
:104A6800BD4680BC704700BF0010024080B483B0D0
:104A780000AF78600B46FB70FB78002B06D00A4B22
:104A8800094A91697A680A439A6107E0064B064A1F
:104A980091697A686FEA02020A409A6107F10C0785
:104AA800BD4680BC704700BF0010024080B483B090
:104AB80000AF78600B46FB70FB78002B06D00A4BE2
:104AC800094AD1697A680A43DA6107E0064B064A5F
:104AD800D1697A686FEA02020A40DA6107F10C07C5
:104AE800BD4680BC704700BF0010024080B483B050
:104AF80000AF78600B46FB70FB78002B06D00A4BA2
:104B0800094AD1687A680A43DA6007E0064B064A20
:104B1800D1687A686FEA02020A40DA6007F10C0786
:104B2800BD4680BC704700BF0010024080B483B00F
:104B380000AF78600B46FB70FB78002B06D00A4B61
:104B4800094A11697A680A431A6107E0064B064A5E
:104B580011697A686FEA02020A401A6107F10C07C4
:104B6800BD4680BC704700BF0010024080B483B0CF
:104B780000AF0346FB71044BFA791A6007F10C0782
:104B8800BD4680BC704700BF4004424280B483B039
:104B980000AF0346FB71044BFA791A6007F10C0762
:104BA800BD4680BC704700BF4C00424280B483B011
:104BB80000AF0346FB71044BFA791A7007F10C0732
:104BC800BD4680BC704700BF0710024080B487B064
:104BD80000AF0346FB714FF00003FB604FF000038A
:104BE8007B614FF00003FB74FB794FEA5313DBB290
:104BF800FB60FB68012B03D1134B1B687B6109E049
:104C0800FB68022B03D1104B1B6A7B6102E00E4B41
:104C18005B6A7B61FB7903F01F03FB60FB687A69C1
:104C280022FA03F303F00103002B03D04FF0010332
:104C3800FB7402E04FF00003FB74FB7C184607F19D
:104C48001C07BD4680BC70470010024080B400AF0E
:104C5800044B044A526A42F080725A62BD4680BCD4
:104C6800704700BF0010024080B485B000AF034613
:104C7800FB714FF00003FB73094B9A68FB791340F3
:104C8800002B03D04FF00103FB7302E04FF0000349
:104C9800FB73FB7B184607F11407BD4680BC7047C1
:104CA8000010024080B483B000AF0346FB71044B90
:104CB800FA791A7007F10C07BD4680BC704700BF2F
:104CC8000A10024080B483B000AF02460B46FA8057
:104CD8007B717B79002B08D00C4B0C4A128891B25F
:104CE800FA880A4392B21A800AE0084B074A1288E7
:104CF80091B2FA886FEA020292B20A4092B21A801E
:104D080007F10C07BD4680BC704700BF0028004073
:104D180080B400AF054B054A928892B242F0100267
:104D280092B29A80BD4680BC704700BF0028004000
:104D380080B400AF054B054A928892B222F0100267
:104D480092B29A80BD4680BC704700BF00280040E0
:104D580080B483B000AF4FF00003FB804FF0000336
:104D6800BB804FF000037B800F4B1B8BFB800E4BEF
:104D78009B8B7B800C4B1B8BBB80FA88BB889A4231
:104D880007D0BB884FEA0342074B9B8B9BB2134368
:104D980004E0FB884FEA03427B881343184607F177
:104DA8000C07BD4680BC70470028004080B582B023
:104DB80000AF7860FFF7ACFF074B7A684FEA124202
:104DC80092B21A83044B7A6892B29A83FFF7B0FFC3
:104DD80007F10807BD4680BD0028004080B582B0B5
:104DE80000AF7860FFF794FF084B7A6802F47022EE
:104DF8004FEA124292B21A81044B7A6892B29A81AF
:104E0800FFF796FF07F10807BD4680BD0028004060
:104E180080B582B000AF7860FFF77AFF074B7A68F9
:104E28004FEA124292B21A84044B7A6892B29A8478
:104E3800FFF77EFF07F10807BD4680BD0028004048
:104E480080B483B000AF4FF000037B600A4B1B8A2D
:104E58009BB203F00F034FEA03437B60064B9B8A28
:104E68009BB27A6813437B607B68184607F10C078E
:104E7800BD4680BC704700BF0028004080B400AF2A
:104E880000BF054B9B889BB203F02003002BF8D092
:104E9800BD4680BC704700BF0028004080B400AF0A
:104EA800094B094A928892B222F0080292B29A807B
:104EB80000BF054B9B889BB203F00803002BF8D07A
:104EC800BD4680BC704700BF0028004080B485B054
:104ED80000AF0346FB804FF00003FB730A4B9B882F
:104EE8009AB2FB8813409BB2002B03D04FF001030A
:104EF800FB7302E04FF00003FB73FB7B184607F1DE
:104F08001407BD4680BC70470028004080B483B0B9
:104F180000AF0346FB80084B074A928891B2FA8893
:104F28006FEA020292B20A4092B29A8007F10C0725
:104F3800BD4680BC704700BF0028004080B485B0E3
:104F480000AF0346FB804FF00003FB73104B9B88B8
:104F58009BB2DAB2FB88DBB21340FB730C4B1B88A5
:104F68009AB2FB8813409BB2002B06D0FB7B002B28
:104F780003D04FF00103FB7302E04FF00003FB7313
:104F8800FB7B184607F11407BD4680BC704700BF7D
:104F98000028004080B483B000AF0346FB80084B74
:104FA800074A928891B2FA886FEA020292B20A40DE
:104FB80092B29A8007F10C07BD4680BC704700BFCB
:104FC8000028004080B582B000AF78607A68914BC5
:104FD8009A420CD14FF400604FF00101FFF786FDB3
:104FE8004FF400604FF00001FFF780FD0EE17B6891
:104FF800B3F1804F0CD14FF001004FF00101FFF7E2
:1050080095FD4FF001004FF00001FFF78FFDFDE027
:105018007A68814B9A420CD14FF002004FF001019F
:10502800FFF784FD4FF002004FF00001FFF77EFD0F
:10503800ECE07A68794B9A420CD14FF004004FF0BB
:105048000101FFF773FD4FF004004FF00001FFF777
:105058006DFDDBE07A68724B9A420CD14FF0080084
:105068004FF00101FFF762FD4FF008004FF000011B
:10507800FFF75CFDCAE07A686A4B9A420CD14FF0A0
:1050880010004FF00101FFF751FD4FF010004FF0F5
:105098000001FFF74BFDB9E07A68634B9A420CD1E7
:1050A8004FF020004FF00101FFF740FD4FF02000C6
:1050B8004FF00001FFF73AFDA8E07A685B4B9A428F
:1050C8000CD14FF400504FF00101FFF70FFD4FF4E2
:1050D80000504FF00001FFF709FD97E07A68544B44
:1050E8009A420CD14FF400204FF00101FFF7FEFC6B
:1050F8004FF400204FF00001FFF7F8FC86E07A68D3
:105108004C4B9A420CD14FF480104FF00101FFF73D
:10511800EDFC4FF480104FF00001FFF7E7FC75E05D
:105128007A68454B9A420CD14FF400104FF00101B8
:10513800FFF7DCFC4FF400104FF00001FFF7D6FC3E
:1051480064E07A683D4B9A420CD14FF040004FF032
:105158000101FFF7EBFC4FF040004FF00001FFF7B3
:10516800E5FC53E07A68364B9A420CD14FF0800048
:105178004FF00101FFF7DAFC4FF080004FF000011B
:10518800FFF7D4FC42E07A682E4B9A420CD14FF4D8
:1051980080704FF00101FFF7C9FC4FF480704FF0A9
:1051A8000001FFF7C3FC31E07A68274B9A420CD123
:1051B8004FF480304FF00101FFF798FC4FF4803036
:1051C8004FF00001FFF792FC20E07A681F4B9A42EB
:1051D8000CD14FF400304FF00101FFF787FC4FF47A
:1051E80000304FF00001FFF781FC0FE07A68184BA0
:1051F8009A420BD14FF480204FF00101FFF776FC63
:105208004FF480204FF00001FFF770FC07F108070A
:10521800BD4680BD002C014000040040000800404D
:10522800000C004000100040001400400034014011
:10523800004C01400050014000540140001800405B
:10524800001C004000200040004001400044014094
:105258000048014080B485B000AF786039604FF0F5
:105268000003FB817B681B88FB817A682E4B9A427E
:1052780013D07A682D4B9A420FD07B68B3F1804FD8
:105288000BD07A682A4B9A4207D07A68294B9A42FF
:1052980003D07A68284B9A4208D1FB8923F070031F
:1052A800FB813B685A88FB891343FB817A68234B4F
:1052B8009A420CD07A68224B9A4208D0FB8923F490
:1052C8004073FB813B68DA88FB891343FB817B6869
:1052D800FA891A803B689A887B689A853B681A889D
:1052E8007B681A857A68104B9A420FD07A680F4B00
:1052F8009A420BD07A68134B9A4207D07A68124BBD
:105308009A4203D07A68114B9A4204D13B681B7ABF
:105318001A467B681A867B684FF001029A8207F169
:105328001407BD4680BC7047002C01400034014082
:105338000004004000080040000C0040001000403D
:105348000014004000400140004401400048014072
:1053580080B485B000AF786039604FF000037B817E
:105368004FF00003FB814FF00003BB817B681B8C6F
:105378009BB223F001039AB27B681A847B681B8C6A
:10538800FB817B689B88BB817B681B8B7B817B89CE
:1053980023F070037B817B8923F003037B813B68C7
:1053A8001A887B8913437B81FB8923F00203FB81E5
:1053B8003B681A89FB891343FB813B685A88FB8940
:1053C8001343FB817A68244B9A420FD07A68234BA7
:1053D8009A420BD07A68224B9A4207D07A68214BBE
:1053E8009A4203D07A68204B9A4223D1FB8923F052
:1053F8000803FB813B685A89FB891343FB81FB89BE
:1054080023F00403FB813B689A88FB891343FB81E3
:10541800BB8923F48073BB81BB8923F40073BB81F0
:105428003B689A89BB891343BB813B68DA89BB898E
:105438001343BB817B68BA899A807B687A891A830F
:105448003B68DA887B689A867B68FA891A8407F150
:105458001407BD4680BC7047002C01400034014051
:1054680000400140004401400048014080B485B03C
:1054780000AF786039604FF000037B814FF0000384
:10548800FB814FF00003BB817B681B8C9BB223F030
:1054980010039AB27B681A847B681B8CFB817B683B
:1054A8009B88BB817B681B8B7B817B8923F4E043D2
:1054B8007B817B8923F440737B813B681B884FEA9F
:1054C80003239AB27B8913437B81FB8923F0200352
:1054D800FB813B681B894FEA03139AB2FB8913438C
:1054E800FB813B685B884FEA03139AB2FB8913433D
:1054F800FB817A68244B9A4203D07A68234B9A42FC
:105508002FD1FB8923F08003FB813B685B894FEA3D
:1055180003139AB2FB891343FB81FB8923F04003F1
:10552800FB813B689B884FEA03139AB2FB891343BC
:10553800FB81BB8923F48063BB81BB8923F40063AF
:10554800BB813B689B894FEA83039AB2BB891343AB
:10555800BB813B68DB894FEA83039AB2BB8913435B
:10556800BB817B68BA899A807B687A891A833B6891
:10557800DA887B681A877B68FA891A8407F1140726
:10558800BD4680BC704700BF002C0140003401407C
:1055980080B485B000AF786039604FF000037B813C
:1055A8004FF00003FB814FF00003BB817B681B8C2D
:1055B8009BB223F480739AB27B681A847B681B8C35
:1055C800FB817B689B88BB817B689B8B7B817B890C
:1055D80023F070037B817B8923F003037B813B6885
:1055E8001A887B8913437B81FB8923F40073FB8131
:1055F8003B681B894FEA03239AB2FB891343FB815B
:105608003B685B884FEA03239AB2FB891343FB810B
:105618007A68244B9A4203D07A68234B9A422FD156
:10562800FB8923F40063FB813B685B894FEA032312
:105638009AB2FB891343FB81FB8923F48063FB81C6
:105648003B689B884FEA03239AB2FB891343FB818B
:10565800BB8923F48053BB81BB8923F40053BB81EE
:105668003B689B894FEA03139AB2BB891343BB81FA
:105678003B68DB894FEA03139AB2BB891343BB81AA
:105688007B68BA899A807B687A899A833B68DA88CA
:105698007B689A877B68FA891A8407F11407BD46E4
:1056A80080BC7047002C01400034014080B485B0B4
:1056B80000AF786039604FF00003BB814FF0000302
:1056C8007B814FF00003FB817B681B8C9BB223F42A
:1056D80080539AB27B681A847B681B8C7B817B68B9
:1056E8009B88FB817B689B8BBB81BB8923F4E04350
:1056F800BB81BB8923F44073BB813B681B884FEA9D
:1057080003239AB2BB891343BB817B8923F40053DB
:105718007B813B681B894FEA03339AB27B89134329
:105728007B813B685B884FEA03339AB27B891343DA
:105738007B817A68124B9A4203D07A68114B9A425D
:105748000BD1FB8923F48043FB813B689B894FEA9B
:1057580083139AB2FB891343FB817B68FA899A8089
:105768007B68BA899A833B68DA887B68A3F840200B
:105778007B687A891A8407F11407BD4680BC704794
:10578800002C01400034014080B582B000AF786041
:1057980039603B681B88002B0FD13B6859883B68F0
:1057A8009A883B681B89786801F0D4F93B68DB88E4
:1057B8007868194601F076F836E03B681B88042BB8
:1057C8000FD13B6859883B689A883B681B89786881
:1057D80001F02EFA3B68DB887868194601F07EF8FC
:1057E80022E03B681B88082B0FD13B6859883B682F
:1057F8009A883B681B89786801F096FA3B68DB88D1
:105808007868194601F088F80EE03B6859883B68CB
:105818009A883B681B89786801F0FAFA3B68DB884C
:105828007868194601F094F807F10807BD4680BD6D
:1058380080B584B000AF786039604FF00003FB8119
:105848004FF00103BB813B685B88002B03D14FF00D
:105858000203FB8102E04FF00003FB813B689B8859
:10586800012B03D14FF00203BB8102E04FF001038B
:10587800BB813B681B88002B1CD13B6859883B685F
:105888009A883B681B89786801F064F93B68DB8873
:105898007868194601F006F83B681B89F989BA89C6
:1058A800786801F0C5F93B68DB887868194601F02B
:1058B80015F81BE03B6859883B689A883B681B8948
:1058C800786801F0B5F93B68DB887868194601F01B
:1058D80005F83B681B89F989BA89786801F03AF9B3
:1058E8003B68DB887868194600F0DCFF07F1100791
:1058F800BD4680BD80B483B000AF786039603B6836
:105908001A883B685B8813439AB23B689B881343A9
:105918009AB23B68DB8813439AB23B681B891343EE
:105928009AB23B685B8913439AB23B689B891343DD
:105938009AB27B68A3F8442007F10C07BD4680BCE7
:10594800704700BF80B483B000AF78607B684FF6C3
:10595800FF729A807B684FF000021A807B684FF0D4
:105968000002DA807B684FF000025A807B684FF0B3
:1059780000021A7207F10C07BD4680BC704700BFD1
:1059880080B483B000AF78607B684FF000021A8063
:105998007B684FF000025A807B684FF000029A80C3
:1059A8007B684FF00002DA807B684FF000021A81B2
:1059B8007B684FF000025A817B684FF000029A81A1
:1059C8007B684FF00002DA8107F10C07BD4680BC06
:1059D800704700BF80B483B000AF78607B684FF039
:1059E80000021A807B684FF000025A807B684FF0F3
:1059F80001029A807B684FF00002DA807B684FF0E2
:105A080000021A8107F10C07BD4680BC704700BF31
:105A180080B483B000AF78607B684FF000021A80D2
:105A28007B684FF000025A807B684FF000029A8032
:105A38007B684FF00002DA807B684FF000021A8121
:105A48007B684FF000025A817B684FF000029A8110
:105A580007F10C07BD4680BC704700BF80B483B017
:105A680000AF78600B46FB70FB78002B08D07B6892
:105A78001B889BB243F001039AB27B681A8007E047
:105A88007B681B889BB223F001039AB27B681A805B
:105A980007F10C07BD4680BC704700BF80B483B0D7
:105AA80000AF78600B46FB70FB78002B0CD07B684E
:105AB800B3F844309BB26FEA43436FEA53439AB258
:105AC8007B68A3F844200BE07B68B3F844309BB2B2
