:020000040800F2
:10000000FF7F0020B1050008330600083506000810
:1000100000000000000000000000000000000000E0
:100020000000000000000000000000003906000889
:1000300000000000000000003B0600083D0600082C
:1000400031060008310600083106000831060008B4
:1000500031060008310600083106000831060008A4
:100060003106000831060008310600083106000894
:100070003106000831060008310600083106000884
:100080003106000831060008310600083106000874
:100090003106000831060008310600083106000864
:1000A0003106000831060008310600088506000800
:0C00B000A90700082D0800083106000810
:1000BC0008B5064B064803331B1A062B00D808BD9F
:1000CC00044B002BFBD09847F9E7C04614000020E6
:1000DC00140000200000000008B50748074B1B1A4D
:1000EC009B10DA0FD318591000D108BD044A002A0E
:1000FC00FBD09047F9E7C046140000201400002004
:10010C000000000010B5074C2378002B09D1FFF735
:10011C00CFFF054B002B02D0044800E000BF0123A9
:10012C00237010BD1400002000000000D010000847
:10013C0008B5094B002B03D00848094900E000BF63
:10014C0008480368002B03D0074B002B00D09847BE
:10015C00FFF7C2FF08BDC04600000000D010000829
:10016C0018000020140000200000000002B47146AA
:10017C0049084900095C49008E4402BC7047C046DE
:10018C00002934D00123002210B488422CD301243E
:10019C002407A14204D2814202D209011B01F8E7D3
:1001AC00E400A14204D2814202D249005B00F8E78C
:1001BC00884201D3401A1A434C08A04202D3001BB8
:1001CC005C0822438C08A04202D3001B9C082243EB
:1001DC00CC08A04202D3001BDC082243002803D029
:1001EC001B0901D00909E3E7101C10BC704700285B
:1001FC0001D00020C04307B4024802A1401802906D
:10020C0003BDC046190000000029F0D003B5FFF76C
:10021C00B9FF0EBC4243891A1847C0467047C04606
:10022C0070B50C4D0C4E0024761BB61004D008CDC6
:10023C0001349847A642FAD100F044FF074D084E0E
:10024C000024761BB61004D008CD01349847A64282
:10025C00FAD170BDF8100008F8100008F81000086A
:10026C00FC10000830B50C1C032A08D8031C11180C
:10027C00002A03D01C7001338B42FBD130BD821895
:10028C00830706D0031C03251C7001332B42FBD1C2
:10029C0000E0031CFF2529400D0269180D044919C3
:1002AC00D51A3F2D1ADD196059609960D960196112
:1002BC0059619961D961196259629962D96219635C
:1002CC0059639963D9634033D51A3F2DEBDC05E0B4
:1002DC00196059609960D9601033D51A0F2DF7DC6D
:1002EC0001E002C3D51A032DFBDC9A42C6D91C705F
:1002FC0001339342FBD1C1E710B50C4C86B00023FF
:10030C0000900193029303930593201C0C236946E0
:10031C00049300F023FE201C0122054900F093FEFB
:10032C00201C012100F07CFE06B010BD00380140FD
:10033C0005010500F0B585B000F0F0FCFC20C00311
:10034C00012100F0E1FD7848012100F0EBFDF020E7
:10035C0001AC01214003012500F0F2FD1C23201CFF
:10036C0023706570A57000F09FFC70492A1C7048C2
:10037C00002600F068FE1B23201C23706670A570FD
:10038C0000F092FC6B4869492A1C00F05CFE90203E
:10039C00C005311C042200F075FC9020C005291CFE
:1003AC00042200F06FFC9020C00502212A1C00F0F2
:1003BC0069FC9020C00503212A1C00F063FC9020EE
:1003CC00C0050421052200F05DFC052190200A1CCB
:1003DC00C00502AC00F056FC3F239020022702938C
:1003EC00C0050323211C63712771A671E57100F010
:1003FC00FFFB9020C0050321042200F043FC0421E4
:10040C0090200A1CC00500F03DFC9020C005062180
:10041C00321C00F037FC9020C0050721321C00F084
:10042C0031FC9020C0050A21042200F02BFC902006
:10043C000422C0050B2100F025FC3F4B90200293B9
:10044C00C0050323211C63712771A671E57100F0AF
:10045C00CFFB3A48311C2A1C00F014FC3748291CED
:10046C002A1C00F00FFC3548391C3A1C00F00AFC21
:10047C003A1C3248032100F005FC0F2302932F484D
:10048C000323211C63712771A671E57100F0B0FB89
:10049C00C023BB40211C029329480323637125719F
:1004AC00A671E57100F0A4FB042000F029FCE1200A
:1004BC004002FFF721FF234BFA211868B940FFF7E0
:1004CC005FFE214B013898420CD8204B204A5860D3
:1004DC00106AC0210002000A0906014311620722BA
:1004EC009E601A601B4A1C4B1C481A6000F074FB7F
:1004FC0080211348890000F0BCFB194B194C1A6879
:10050C0023689A42FCD2802149000D4800F0ACFBD4
:10051C008021424242414900094800F0ACFB22686C
:10052C000F4B64321A60E8E7E0400000050105005B
:10053C000044004000380140D80C0000000800487E
:10054C000004004800000020FFFFFF0010E000E066
:10055C0000ED00E07505000854050020E8100008C7
:10056C00300000203800002010B5041C0548802104
:10057C0000F080FD0028F9D00248211C00F05BFD42
:10058C0010BDC0460038014038B5041C0D1C201CA1
:10059C00802100F06FFD0028F9D0291C201C00F0F0
:1005AC004AFD38BD1348854613480168090E134AA5
:1005BC00914205D112481349016013481349016057
:1005CC00002103E0124B5B58435004311148124B8D
:1005DC0042189A42F6D3114A02E000231360043207
:1005EC000F4B9A42F9D300F079F9FFF719FEFFF798
:1005FC00A1FEFEE7FF7F0020040000001F000000AA
:10060C001810024001000000000001400000000032
:10061C00001100080000002014000020140000202D
:10062C0058050020FEE7704700B5FEE7704770479D
:10063C000D4B10B51A680D4C01321A6023680A2153
:10064C00013323602068FFF7DFFD002903D1084B3D
:10065C001A6801321A602368632B03D9054B1A6898
:10066C0001321A6010BDC046340000203800002052
:10067C003C0000204000002038B53C483C4900F0CC
:10068C00FEFC012871D1394800F0D9FC394D041C0D
:10069C00562803D0384B1B68002B06D18022002132
:1006AC00364852002960FFF7DDFD2B68012B36D14F
:1006BC00002C34D0324D601E2C6005282FD8FFF74B
:1006CC0055FD030A11181F262E485621FFF75CFF13
:1006DC0029782C4821E02C485621FFF755FF297822
:1006EC0029481AE029485621FFF74EFF2978274858
:1006FC0013E027485621FFF747FF297824480CE0E0
:10070C0024485621FFF740FF2978224805E022486B
:10071C005621FFF739FF29781F48FFF735FF154B96
:10072C001B68012B21DD164B18680138052812D8DF
:10073C00E1B2FFF71BFD030507090B0D114808E09B
:10074C00114806E0114804E0114802E0114800E0AD
:10075C001148FFF719FF074A084913680348CC549E
:10076C0001330349136000F0A7FC38BD0038014089
:10077C00050105004800002044000020540400201E
:10078C004C0000200044004000480040004C004059
:10079C0000500040001401400018014038B51A48C0
:1007AC001A4900F06CFC01282DD1174800F047FCC9
:1007BC00041C762809D1164B002119608022154B98
:1007CC001548D2001960FFF74DFD124B1B68012B29
:1007DC0008D10D487621FFF7D7FE104B0A4819783F
:1007EC00FFF7D2FE0B4D2B68012B03DDE1B206485F
:1007FC00FFF7CAFE2B68084A0348D4540349013357
:10080C002B6000F059FC38BD004400400501050088
:10081C004800002044000020540000204C00002020
:10082C0008B52748274900F02AFC012806D124489E
:10083C0000F005FC2248234900F03EFC22482149E7
:10084C0000F01DFC012806D11F4800F0F8FB1E48E3
:10085C001C4900F031FC1D481A4900F010FC01281D
:10086C0006D11A4800F0EBFB1848164900F024FC9E
:10087C001748144900F003FC012806D1144800F075
:10088C00DEFB13480F4900F017FC12480D4900F02D
:10089C00F6FB012806D10F4800F0D1FB0D480949A1
:1008AC0000F00AFC0C48074900F0E9FB012806D1CE
:1008BC00094800F0C4FB0848024900F0FDFB08BDE4
:1008CC000048004005010500004C0040005000406D
:1008DC000014014000180140001C0140364B07B5C4
:1008EC001968012211431960586834490140596054
:1008FC001868334901401960186832490140196081
:10090C005868314901405960D96A0F208143D96236
:10091C00186B2E4901401963596B802091430022BA
:10092C0059639A60009201921968802252020A431C
:10093C001A60A0228002D20119680140019100992D
:10094C00013100910199002902D100999142F3D112
:10095C001968802292020A4000D001220192019A69
:10096C00012A27D11A4A112111605A685A605A6813
:10097C005A605968174A0A405A60596888225203CB
:10098C000A435A601968802252040A4380211A6073
:10099C0089041868084A0842FBD051680320814337
:1009AC00516051680220014351600C215A680A4081
:1009BC00082AFBD107BDC046001002400CB8FF0846
:1009CC00FFFFF6FEFFFFFBFFFFFFC0FFACFEFFFFCC
:1009DC0000200240FF7FC0FF074A08B51368002BB8
:1009EC0003D018700133136004E0044B1B68002B18
:1009FC0000D0984708BDC046500000205405002088
:100A0C0010B5041C02E00134FFF7E6FF2078002843
:100A1C00F9D110BDF0B5071C8BB00C1C00E0029C8A
:100A2C003878002800D1D5E0252801D001376DE0B9
:100A3C007D78302D03D1BD780126033707E02D2DAD
:100A4C0002D00237002602E0BD78022603370021CF
:100A5C0003910A2206E0039B53435D19303D039535
:100A6C003D7801372B1C303B092BF4D920232A1C51
:100A7C009A434C2A03D104233D781E430137002DA1
:100A8C0000D1A7E02B1C602D01D9203BDBB24F2BF2
:100A9C0043D006D8432B30D0442B09D0422B34D131
:100AAC0038E0552B04D0582B2DD0532B2DD101E0F1
:100ABC000A2133E02568221D02922B1C5C1B01339A
:100ACC005A1E1278002AF9D104E02020FFF784FF87
:100ADC00341C01E0B30704D40399661C8C42F4D394
:100AEC00341C281CFFF78CFF03E02020FFF774FF59
:100AFC000134039A9442F8D391E7231D2078029392
:100B0C00FFF76AFF8BE7102108E0281CFFF764FF52
:100B1C00029484E70222049201E008210491221D30
:100B2C00029224680194019A002A05DA442B03D11D
:100B3C005242082301921E430023059300E00594C2
:100B4C0001980499FFF760FB0198CCB20499FFF768
:100B5C0017FB0190092C05D90723782D00D12723E9
:100B6C001C19E4B2059A303406A95454141C0134EF
:100B7C000F23A34202D301990029E0D1320704D5F7
:100B8C002D2306A90B55059C023420220192F30754
:100B9C0001D530210191251CB20704D508E001983C
:100BAC00FFF71AFF351C039B6E1C9D42F7D3351CB7
:100BBC00013C182109196A46885CFFF70DFF002CCF
:100BCC00F6D103E02020FFF707FF0135039B9D4280
:100BDC00F8D324E70BB0F0BD0FB407B504A908C9CE
:100BEC00181C0191FFF716FF03B008BC04B018479E
:100BFC00F7B50A68002301920124019D9C40254011
:100C0C00A5422DD10C79661E012E15D886680327B6
:100C1C000096009A5E00B740BA4382604A798768B2
:100C2C00B240161C3E4386608688AE4386808D7922
:100C3C0086889D40354385805D0003260768AE405D
:100C4C00F643374007600768AC403C430460C46817
:100C5C002640C660CE79C468AE40351C2543C560BD
:100C6C000133102BC8D1F7BD808A0840431E984130
:100C7C0070470185704700B5002A01D0816100E002
:100C8C00018500BD07230B40C9080831890030B528
:100C9C009B000C580F259D40AC430C500C589A40AF
:100CAC00131C23430B5030BD827870B50378002A97
:100CBC0019D003249908104A2340C031A34089005D
:100CCC00FF248D58261C9E40B5434678B60134400F
:100CDC009C402B1C23438B5001781F230B4001217C
:100CEC009940116006E01F22134001229A40131C08
:100CFC00024AD36770BDC04600E100E004E100E0A9
:100D0C00054B00B51A68042802D11043186002E0A4
:100D1C0004218A431A6000BD10E000E0114B01224F
:100D2C0019681143196058680F49014059601868D7
:100D3C000E490140196018680D4901401960586846
:100D4C000C4901405960D96A0F208143D962186B54
:100D5C00094901401963596B9143002259639A6008
:100D6C007047C046001002400CB8FF08FFFFF6FEAB
:100D7C00FFFFFBFFFFFFC0FFACFEF0FFF8B55B4DC4
:100D8C00041C68680C231840FFF7F0F91F1F1F1F85
:100D9C001F1F1F1F071F1F1F1D006E68C023B602D9
:100DAC006A68360F5B0202361A4201D1504807E0DE
:100DBC004E4B5048D96A0F2319400131FFF7E0F927
:100DCC007043206004E04C4B00E04A4B2360002051
:100DDC006B684A4A1B061B0F2168D35C0E1CDE4055
:100DEC006660331C6E687605760F925DD340A36007
:100DFC002A6BD60501D4424A06E03C4A5268560496
:100E0C0001D45A0800E09A08E2602A6B560601D415
:100E1C003C4A01E08022120222612A6BD60602D4DF
:100E2C00344A626100E061612F6B03222F4E17423E
:100E3C0001D1A36112E0376B1740012F01D1A161E1
:100E4C000CE0376B1740022F02D18022120204E013
:100E5C00366B3240032A01D1264AA261C0222F6B85
:100E6C009202224E174201D1E36118E0376B174012
:100E7C00BC4680277F02BC4501D1E1610FE0376B96
:100E8C001740BC468027BF02BC4502D1802212020B
:100E9C0004E0366B1640964201D1164AE261C0223C
:100EAC002F6B1203114E174200D115E0376B8023C4
:100EBC001740DB029F4201D121620EE0316B80238F
:100ECC0011401B03994202D180231B0204E0336BB7
:100EDC001340934201D1074B23622B6B1A0602D4A9
:100EEC00054B636200E06062F8BDC0460010024032
:100EFC0000093D0000127A00006CDC0204000020A6
:100F0C00809FD50012800000054B00B55A6900295E
:100F1C0002D01043586101E082435A6100BDC046C3
:100F2C0000100240054B00B59A69002902D010430D
:100F3C00986101E082439A6100BDC04600100240F6
:100F4C00054B00B5DA69002902D01043D86101E0E5
:100F5C008243DA6100BDC0460010024003680122E2
:100F6C009343F0B503604268264B0E1C896813400E
:100F7C000B4343600268244B71681A40F3688DB0D0
:100F8C000B433169041C0B431343036082681F4BF2
:100F9C00134072691343836002A8FFF7EFFE1C4BEA
:100FAC009C4201D1089F0AE01A4B9C4201D1099F37
:100FBC0005E0194B9C4201D10A9F00E0049F316867
:100FCC00236801911A0402D57F00381C01E00199B5
:100FDC00381CFFF7D5F80199051C381CFFF714F9DC
:100FEC0032680023520891425B41ED1823681904C2
:100FFC0004D50A4A2B075B0F15401D43A5810DB084
:10100C00F0BDC046FFCFFFFFF3E9FFFFFFFCFFFF82
:10101C00003801400044004000480040F0FF000050
:10102C0000B501230268002901D0134301E09A4363
:10103C00131C036000BDC905C90D01857047808C68
:10104C00C005C00D70478BB210B5C9B201248C40DD
:10105C001B0A211C022B01D1043002E0032B00D10E
:10106C0008300368002A02D01943016001E08B4369
:10107C00036010BDC0690840431E98417047CBB255
:10108C0010B501248AB29C40120A231C012A01D1FA
:10109C00026804E0022A01D1426800E08268134031
:1010AC00090C01228A40C069111C08405A1E934148
:1010BC00411E8841184010BD090C01238B4003626E
:1010CC0070470000F8B5C046F8BC08BC9E46704797
:0C10DC00F8B5C046F8BC08BC9E46704742
:1010E80063616D206875622064656D6F0D0A00008C
:0410F8003D010008AE
:0410FC0011010008D6
:10110000006CDC0200000000010203040102030481
:0411100006070809BD
:04000005080005B139
:00000001FF
