:020000040800F2
:10000000FFFF002061190008C1190008C31900088A
:10001000C5190008C7190008C91900080000000028
:10002000000000000000000000000000CB190008E4
:10003000CD19000800000000CF190008D1190008F0
:10004000BD190008BD190008BD190008BD19000838
:10005000BD190008BD190008BD190008BD19000828
:10006000BD190008BD190008BD190008BD19000818
:10007000BD190008BD190008BD190008BD19000808
:10008000BD190008BD190008BD190008BD190008F8
:10009000BD190008BD190008BD190008BD190008E8
:1000A000BD190008BD190008BD190008BD190008D8
:1000B000BD190008BD190008BD190008BD190008C8
:1000C000BD190008BD190008BD190008BD190008B8
:1000D000BD190008BD190008BD190008BD190008A8
:1000E000BD190008BD190008BD190008BD19000898
:1000F000BD190008BD190008BD190008BD19000888
:10010000000000000000000000000000BD19000811
:10011000BD190008BD190008BD190008BD19000867
:10012000BD190008BD190008BD190008BD19000857
:10013000BD190008BD190008000000000000000003
:10014000BD190008BD190008BD1900080000000015
:10015000000000000000000000000000000000009F
:100160000000000000000000BD190008BD190008D3
:10017000BD190008000000000000000000000000A1
:0801800000000000BD19000899
:1001880008B540F24050074BC2F200001B1A062B7C
:1001980000D808BD40F20003C0F20003002BF8D0DD
:1001A8009847F6E74305002008B540F2405040F272
:1001B8004053C2F20000C2F200031B1A9B1003EB6B
:1001C800D373591000D108BD40F20002C0F20002FA
:1001D800002AF8D09047F6E710B540F24054C2F232
:1001E8000004237873B9FFF7CBFF40F20003C0F295
:1001F80000032BB142F6A800C0F60000AFF3008060
:100208000123237010BD00BF08B540F20003C0F2FF
:1002180000034BB142F6A80040F24451C0F600007A
:10022800C2F20001AFF3008040F24050C2F2000079
:1002380003682BB140F20003C0F2000303B19847F2
:10024800BDE80840FFF7B0BF70B542F6881642F621
:100258008815C0F60006C0F60005761BB61007D054
:10026800043D002455F8043F01349847A642F9D1CB
:1002780042F68C1642F68815C0F60006C0F6000550
:10028800761B02F00DFBB61008D0043D002455F88B
:10029800043F01349847A642F9D170BD70BD00BF34
:1002A800032AC9B270B408D82AB10346121803F851
:1002B800011B9342FBD170BC70478307024409D0ED
:1002C800441C04F00305234604F8011C0134002DE6
:1002D800F7D100E00346D51A01EB01243F2D04EBCA
:1002E80004442CDD1C604033D51A43F83C4C3F2DA8
:1002F80043F8384C43F8344C43F8304C43F82C4C12
:1003080043F8284C43F8244C43F8204C43F81C4C41
:1003180043F8184C43F8144C43F8104C43F80C4C71
:1003280043F8084C43F8044CDCDC08E01C6010334C
:10033800D51A43F80C4C43F8084C43F8044C0F2DDD
:10034800F4DC032D08DD1D1D561B45F8044C032E57
:100358002B4605F10405F7DC9A42ACD9013301328A
:1003680003F8011C01339342FAD1A4E7000000000E
:1003780070B540F20004C2F2000406462568A96B75
:1003880019B100230E614B6170BD182000F0DEF931
:1003980023680122A863996B43F20E330B804AF657
:1003A800CD334B8041F234238B804EF26D63CB808A
:1003B8004DF6EC630B8105234B810B238B810023C6
:1003C800C1E90423DDE700BFF8B540F20004C2F23A
:1003D80000042568AE6BDEB135694FF22D4C7769A4
:1003E80047F62D74C5F6510CC4F695440122002336
:1003F8000CFB05FC04FB07C7A5FB04457D19121976
:1004080043EB050323F00041C6E904230846F8BD81
:10041800182000F09BF924684FF22D4110A3D3E96E
:100428000023C5F65101A86343F20E30A66B0025E0
:10043800012430804AF6CD30C6E90445708041F287
:100448003420B0804EF26D60F0804DF6EC60308163
:10045800052070810B20B081D6E700BFAFF3008084
:100468002E7F954C2DF45158830770B5064614D14C
:100478000368A3F1013222EA030313F0803F0CD191
:10048800031D1A4653F8044BA4F1013525EA040468
:1004980014F0803FF5D0104600E0304603782BB1C9
:1004A800431C184601330478002CFAD100F0F0F808
:1004B800304670BD80EA010212F0030F40F03A8026
:1004C80010F0030220F0030021F0030150F804CBE0
:1004D80008BF51F8043B0DD082F003024FEAC20274
:1004E8006FF07F4323FA02F251F8043B4CEA020C06
:1004F80043EA0203ACF101329C4501BF22EA0C0237
:1005080012F0803F50F804CB51F8043BF2D04FEA88
:100518000C604FEA1C2C012828BFB0EB036F08BF02
:100528001B0AF4D003F0FF034FEA1060A0EB0300AE
:10053800704700BF10F0030F0AD010F8012B11F814
:10054800013B012A28BF9A42F4D0A2EB030070476E
:100558004DF8045D4DF8044D4FF0010242EA0222C5
:1005680042EA024201F0030C21F0030150F8044B67
:1005780051F8045BBCF1020F26D04BD824F07F4C15
:10058800BCEB152FA4EB020323EA04030DD113EAF5
:10059800C21308BF51F8045B0AD18CEA040CBCEB07
:1005A800056F0CD150F8044BE8E74FEA15255CE0DD
:1005B80033F07F4352D10D784FEA146C55E04FEA7F
:1005C800146C05F0FF0550E04FEA044CA4EB02035D
:1005D8004FEA1C4C23EA0403BCEB154F17D113EA6E
:1005E800C21308BF51F8045B07D18CEA040CBCEBBA
:1005F800054F08D150F8044BE6E71B042ED10D88AF
:100608004FEA144C31E04FEA05454FEA144C4FEAE3
:1006180015452AE004F0FF0CBCEB156FA4EB0203B0
:1006280023EA04030DD113EAC21308BF51F8045B8F
:100638000AD18CEA040CBCEB052F0AD150F8044B04
:10064800E8E74FEA156510E014F0FF0F06D051F8FF
:10065800045B4FEA142C25F07F4506E04FF00000BC
:100668005DF8044B5DF8045B70470CF0FF0205F081
:10067800FF00012828BF904204BF4FEA1C2C2D0A16
:10068800F3D0A2EB00005DF8044B5DF8045B704703
:1006980080EA0102844612F0030F4FD111F0030FD4
:1006A80032D14DF8044D11F0040F51F8043B0BD032
:1006B800A3F101329A4312F0803F04BF4CF8043B87
:1006C80051F8043B16D100BF51F8044BA3F1013295
:1006D8009A4312F0803FA4F101320BD14CF8043B4D
:1006E800A24312F0803F04BF51F8043B4CF8044B7E
:1006F800EAD023460CF8013B13F0FF0F4FEA3323EF
:10070800F8D15DF8044B704711F0010F06D011F8CD
:10071800012B0CF8012B002A08BF704711F0020FBB
:10072800BFD031F8022B12F0FF0F16BF2CF8022BA6
:100738008CF8002012F47F4FB3D1704711F8012BC9
:100748000CF8012B002AF9D1704700BF40F20003D2
:100758000146C2F20003186800F008B840F200032E
:100768000146C2F20003186800F036BB2DE9F04FCD
:1007780001F10B04162C83B0074630D924F0070486
:10078800E30F8C422CBF194643F0010100292FD1F9
:10079800384600F0B7FAB4F5FC7F2ED24FEAD40CF5
:1007A80040F2F406C2F2000606EBCC02D36893428C
:1007B80000F01182596803F10808DA68384621F018
:1007C800030499681B195C68CA6044F001049160CD
:1007D8005C6000F099FA404603B0BDE8F08F002352
:1007E80010248C422CBF194643F001010029CFD0B8
:1007F8000C234FF000083B60EDE75FEA542C04BF80
:100808004FEAD40C4FEA4C0540F08F8040F2F406D2
:10081800C2F2000606EB8505EB689D4206D10DE0A5
:10082800002A80F25581DB689D4207D0596821F083
:1008380003010A1B0F2AF3DD0CF1FF3C0CF1010C3C
:1008480040F2F4023369C2F2000202F1080E734565
:1008580008BFD2F8049022D0586820F00300011B8A
:100868000F2900F384810029C2F814E0C2F810E0CF
:1008780066DAB0F5007F80F04E81C1084FF00108BC
:1008880002EBC100891008FA01F851688568D86040
:1008980048EA0109C2F804909D60EB608360012278
:1008A8004FEAAC0302FA03F34B4554D819EA030F95
:1008B8000DD193402CF0030C19EA030F0CF1040C32
:1008C80005D15B000CF1040C19EA030FF9D006EB13
:1008D800CC09E0464846C268904207D15BE100294E
:1008E80080F28381D268904200F05581556825F0E6
:1008F8000305291B0F29F2DD90461319D56844F02A
:10090800010058F8084F41F0010C50603846C3F810
:1009180004C0E560AC6073613361C3F80CE0C3F8F0
:1009280008E0595000F0F0F955E7BCF1040F00F267
:10093800DE804FEA941C0CF1380C4FEA4C0565E751
:100948001A1803F108083846536843F00103536046
:1009580000F0DAF93FE7B5686B6823F0030A5445FD
:1009680004D8C4EB0A030F2B00F3A48040F25C59AF
:10097800D6F80814C2F2000905EB0A020131D9F8C9
:100988000030234408BF03F1100B06D003F5805351
:100998000F3323F47F6323F00F0B38465946019237
:1009A80000F0B4F9019A411C804600F06881824247
:1009B80000F23181D9F8043042455B44C9F804306B
:1009C80000F06681D6F8081440F2F400C2F2000084
:1009D800013117BFC2EB0802C0F808849B18C9F898
:1009E800043018F0070338461FBFC3F10802C3F5E7
:1009F8008053904403F1080208EB0B0308BF4FF43F
:100A080080521B051B0DC3EB020B594600F07EF903
:100A1800431C00F04981C8EB0001594441F0010131
:100A2800D9F80430B54240F25C52C6F808805B44FD
:100A3800C2F20002C8F80410C9F8043018D0BAF19C
:100A48000F0F40F20B81AAF10C00696820F0070033
:100A58004FF0050C05EB000E0F2801F0010140EAEC
:100A680001016960CEF804C0CEF808C000F2208108
:100A780040F25C52D9F82C10C2F20002B5688B42E1
:100A8800D9F8301088BFD36240F25C52C2F200023B
:100A98008B4288BF13636A6822F003029442C4EB56
:100AA800020301D80F2B05DC38464FF0000800F090
:100AB8002BF990E62A1943F0010344F00104384663
:100AC8006C6005F108085360B26000F01DF982E619
:100AD8005918DA689C6838464D6803F1080845F0EB
:100AE8000105E26094604D6000F00EF973E6BCF118
:100AF800140F9CBF0CF15B0C4FEA4C057FF686AED9
:100B0800BCF1540F00F293804FEA143C0CF16E0CC8
:100B18004FEA4C057AE6420A042A75D9142A9CBF82
:100B280002F15B094FEA490508D9542A00F2C98045
:100B38004FEA103909F16E094FEA490506EB8505B8
:100B480040F2F408C2F20008AA68AA4279D05168B3
:100B580021F00301884202D292689542F7D1D06809
:100B6800D6F80490D8609A60D360836097E61D1920
:100B780041F00106556144F00104156138465C6096
:100B880003F10808C5F80CE0C5F808E06E60695084
:100B980000F0BAF81FE608F10108083018F0030F52
:100BA8007FF499AE4A461CF0030FA2F108010CF13C
:100BB800FF3C00F09E8012688A42F4D072685B00A5
:100BC80093423FF6C8AE002B3FF4C5AE1A4200F080
:100BD8009580C4467BE603F108025B699A4208BF28
:100BE8000CF1020C3FF42CAEE4E590465519D3689D
:100BF800384658F8082F6968D36041F001019A60B7
:100C0800696000F081F8E6E54FEA901909F13809C2
:100C18004FEA490592E7B54240F2F403C2F20003F5
:100C28003FF4C8AE9D686A6822F0030236E7BCF557
:100C3800AA7F19D84FEAD43C0CF1770C4FEA4C053F
:100C4800E4E50125D8F804104FEAA909104605FA89
:100C580009F545EA0109C8F8049083E701234546E8
:100C6800C8F80430002219E740F254539C450BD8C9
:100C78004FEA944C0CF17C0C4FEA4C05C6E5B5687C
:100C88006A6822F0030209E7FC254FF07E0CBDE5F7
:100C98001105090D00297FF495AEB2680BEB0A0126
:100CA80041F001015160E3E601214FF0000BB7E686
:100CB800384605F10801019200F08EF8019A536850
:100CC800D6E6B2F5AA7F06D84FEAD03909F17709F6
:100CD8004FEA490532E740F25451FC258A424FF069
:100CE8007E099EBF4FEA904909F17C094FEA490500
:100CF80024E7726822EA0302726060E75B0008F189
:100D0800040863E7704700BF704700BF38B540F676
:100D18003434C2F20004054608460023236000F07C
:100D2800C9FE431C00D038BD2368002BFBD02B60C4
:100D380038BD00BFF8B540F2F404C2F200040F4613
:100D48000546FFF7DFFFA3685E6826F0030606F690
:100D5800EF73DF1B3F0B013F3F03B7F5805F07DBF6
:100D680000212846FFF7D2FFA3689B19984204D0B8
:100D78002846FFF7C9FF0020F8BD79422846FFF74B
:100D8800C5FF013010D040F26053A168C2F20003E1
:100D9800F61B284646F001061A684E60D71B1F60EE
:100DA800FFF7B2FF0120F8BD00212846FFF7AEFF8C
:100DB800A368C21A0F2ADBDD40F2FC4440F26051FE
:100DC800C2F20004C2F2000142F001025A60236834
:100DD800C01A0860CCE700BF2DE9F0410E468046F6
:100DE80000295CD0FFF78EFF40F2F40556F8041C8A
:100DF800C2F20005A6F1080421F00103AF68E21869
:100E08009742506820F0030067D011F0010150604C
:100E180035D000211618766816F0010F06D11B1878
:100E2800906800294DD0D268C260906043F00102FA
:100E3800E3506260F1B9B3F5007F32D35A0A042A4D
:100E48006CD898093830410005EB810540F2F4016F
:100E5800C2F20001AA68AA426BD0516821F00301CE
:100E68008B4202D292689542F7D1D368E360A260C0
:100E7800D4609C604046BDE8F041FFF745BF56F896
:100E8800086C05F1080CA41B9B19A668664543D09D
:100E9800D4F80CC0C6F80CC0CCF80860BAE7BDE8B6
:100EA800F081DB080121686805EBC3029B1001FA99
:100EB80003F3E260916818436860A160CC609460B5
:100EC800D8E7294EB042AED16C6143F001022C61E3
:100ED800E060A0606260E350CCE7C018CB0707D49D
:100EE80056F8083CE41AC018A268E368D3609A6010
:100EF80040F2005240F00103C2F200026360AC60AD
:100F080013689842B6D340F25C534046C2F20003DD
:100F18001968FFF70FFFADE701217BE702F15B00DE
:100F28004100142A90D9542A0CD8180B6E3041006D
:100F38008AE701264D688010134606FA00F005433B
:100F48004D6093E7B2F5AA7F03D8D80B77304100FC
:100F58007AE740F254518A4203D8980C7C30410019
:100F680072E7FC217E206FE7FC00002082B0019030
:100F7800019843054FEAD02018BF013002B07047EE
:100F880070B5084C084D0646352001F0D1F854F8E4
:100F9800042F331903F17843A3F5FF23AC421A60F9
:100FA800F2D170BDFCF7070848F8070873B50423A9
:100FB800054635208DF8073001F0BAF80B480B4C80
:100FC8000B4E01F041F941F204032B612B1903F197
:100FD8007843A3F5FF232046196801F00DF904347E
:100FE800B4428DF80700F1D17CBD00BF00F80708B6
:100FF8004CF8070870B5084C084D0646352001F036
:1010080097F854F8042F331903F17843A3F5FE2316
:10101800AC421A60F2D170BDFCEF0708FCFF07086C
:1010280073B50423054635208DF8073001F080F8A4
:101038000948094C094E01F007F92B1903F17843C7
:10104800A3F5FE232046196801F0D6F80434B4420B
:101058008DF80700F1D17CBD00F0070800F40708FF
:10106800014608B5044801F010FC0348802101F04E
:1010780010FC0028F9D008BD003801402DE9F341E3
:101088000446C768042335208DF8073001F050F86E
:10109800E36823F4FF6323F0070303F50066BF0842
:1010A800F60A0137642EA8BF6426002506E005F578
:1010B80080300A30C00201F0C7F80135B542F6D1D8
:1010C8004FF00A08124EB7FBF8F80025B5FBF8F305
:1010D80008FB135313B92E20FFF7C2FFA6F54730BC
:1010E800A0F57F7056F8041F01F086F80135BD425F
:1010F8008DF80700EAD3A3682360E3686360054BB3
:10110800636103F54833A3610120BDE8FC8100BF9A
:10111800FC6F030800500008F8B50446FFF730FFDD
:10112800E168364A4B1E9342636811D9013B9342EA
:1011380057D800F0A9FF616831488908013100F0EB
:10114800ABFF236898420CBF01206FF00100F8BD87
:10115800581E90422068A26894BF002501258CBFC4
:1011680000260126904201D18B4204D0002D0CBFED
:101178000225012501E0EDB1012500F085FFE168B8
:10118800204F89080131384600F086FFA36898424D
:1011980009D13A681C4B1340B3F1005F03D12046D4
:1011A800FFF76CFF02266368E36023682046A360AC
:1011B800FFF7FCFEC6B16368013B033316D800F0A5
:1011C80063FF61680E488908013100F065FF2368F4
:1011D80098420ED1012D0FD0022E14BF02200420F8
:1011E800F8BD4FF0FF30F8BD3046F8BD6FF0020093
:1011F800F8BD6FF00300F8BD0320F8BDFE1F030023
:1012080000500008007003080000FE2F38B5054C98
:1012180005462021204601F03CFB10B1A38C01209B
:101228002B7038BD00380140F8B5094B1C680646DC
:101238000F461D463046FFF7E9FF012806D02B6808
:101248001B1BBB42F6D34FF0FF30F8BD0020F8BDA2
:10125800980500202DE9F04100250E680D6007462D
:101268000C4690460BE078194146FFF7DDFF10B1B8
:101278002068BDE8F0812368013323600135B54259
:10128800F1DBF5E72DE9F743DFF8D0903148012489
:10129800102300250326694600934FF480788DF8C3
:1012A80004408DF806508DF807408DF8056000F071
:1012B800E9FF484669464FF40077CDF800808DF87D
:1012C80004408DF806508DF807408DF8056000F051
:1012D800D9FF4846694600978DF804408DF80650B6
:1012E8008DF807408DF8056000F0CCFF69461A4874
:1012F800CDF800808DF804408DF806508DF8074031
:101308008DF8056000F0BEFF092107224FF09040DC
:1013180001F013F80A2107224FF0904001F00DF870
:10132800022369464FF090408DF804308DF805602F
:101338008DF806508DF80740009700F0A3FF4FF492
:1013480080634FF090406946009300F09BFFBDE832
:10135800FE8300BF0010004800040048000C00484D
:1013680010B5402086B0012101F006FA01214FF4A2
:10137800001001F001FA01214FF4801001F0FCF98E
:1013880001214FF4801001F0F7F901214FF40030EA
:1013980001F0F2F901214FF4003001F0EDF90121DB
:1013A8004FF4003001F0E8F901214FF4804001F0DA
:1013B800EFF901214FF4804001F0EAF90B4CFFF7F7
:1013C80061FF4FF4E13300930023019302930393E9
:1013D800059320460C236946049301F0F1F9204651
:1013E800012101F049FA06B010BD00BF00380140E4
:1013F80070B5342000F09CFE00F0F8FC051E1DDDE1
:101408000F4C104E2046FFF7BBFD3520E56000F07D
:101418008FFE00F039FEA9100131304600F03CFE85
:10142800094BA060636120460123A6612362FFF790
:10143800BDFD0648BDE8704000F0BABC70BD00BFF5
:10144800D00500200070030800500008C0280008DC
:1014580008B500F03DFB1A4A1A4B00214FF0006016
:101468001A6000F0BFFF4FF4407000F07DFF16488F
:101478001649FEF7F9FF164B1A686423B2FBF3F21C
:10148800013AB2F1807F09D2124B5A60124AF02118
:1014980082F8231000229A6007221A6000F00CFEDE
:1014A800FFF75EFF0D4800F083FC0D490648FEF784
:1014B800DBFF0C4800F07CFC00F038F9FEE700BFC9
:1014C8006910000824060020A80500200A29000841
:1014D8000805002010E000E000ED00E010290008F9
:1014E8001B2900081F290008BFF34F8F044A054B2A
:1014F800D16801F4E0610B43D360BFF34F8FFEE77F
:1015080000ED00E00400FA05F0B50378302B2BD18C
:101518004378782B01D0582B26D18378002B43D0E1
:1015280000240222835C0BB90C6031E0A3F1410670
:10153800F6B2052EA3F1300506D9A3F16107052FF0
:1015480002D9EFB2092F2FD8EFB22401092F01D801
:101558002B4604E0052E01D8373B00E0573B01320B
:101568000B2A1C44DED11FE000231A460A25845C9E
:1015780004B90CE06B2C01D04B2C02D10AB19B02B0
:1015880005E06D2C01D04D2C04D11AB11B050B6060
:101598000120F0BDA4F13006092E05D805FB034350
:1015A8000132303B0B2AE2D10020F0BD2DE9F04F8B
:1015B8009DB0002132220FA8FEF772FE05230021FC
:1015C800322202A80193FEF76BFE032202A801A9AA
:1015D800FFF740FE019B052B01D00020A0E09DF8FD
:1015E8000860242EF9D19DF80A709DF809303F044F
:1015F80047EA03679DF80C301F439DF80B305324CE
:101608004B2508214FF041080DF1090047EA03274F
:101618008DF80D408DF80E508DF80F408DF8108024
:1016280000F01DFD404B824618683818FEF7A0FEF2
:10163800FEF7CAFE1027020E8DF8412020FA07F2A5
:1016480042238DF83C60CAF3072B04268DF842200C
:101658008DF84400020A08210DEB08008DF843209C
:101668008DF845408DF846508DF847408DF8483044
:101678008DF83D708DF83E608DF83FB08DF840A034
:1016880000F0EDFC0821814602A88DF80A408DF88B
:101698000B508DF80C408DF808B08DF809A08DF826
:1016A8000D808DF80E708DF80F6000F0D8FC0024C6
:1016B80005460FAB185D0134FFF7D2FC092CF8D1B1
:1016C8000623032202A801A90193FFF7C3FD019B8A
:1016D800062B82D19DF80840242C7FF47EAF9DF81C
:1016E8000930562B7FF479AF9DF80A009DF80B104E
:1016F8009DF80C209DF80D3041EA002149457FF402
:101708006CAF43EA0223AB427FF467AF2046FFF792
:10171800A7FC2046FFF7A4FC2046FFF7A1FC012008
:101728001DB0BDE8F08F00BF900500202DE9F743FC
:10173800704B714D052200241A606FF01F032B6057
:101748008DF8034000F0E4FC2B68184098426B4B7E
:1017580002D001221A6000E01C60694C256800F084
:10176800DDFC80B900F0A8FC00F0B4FCBB2000F060
:101778000BFD00F0C5FC00F0BBFC23685B1B092BCC
:10178800FBD9FFF7B1FE5F485F4E4FF4007100F0E0
:10179800CDFD5C484FF4807100F0C6FD4FF00108A4
:1017A800C14603210DF10300C6F80090FFF73CFD88
:1017B80010F0FF0F054628D19DF80330242B08D1DF
:1017C800FFF7F4FE0028ECD002233360FFF710FE89
:1017D800E7E7402BE5D1FFF7E9FE0028E1D04B4CC5
:1017E8002046FFF707FC45F00F0384F87D5384F883
:1017F8007E5365F07F0584F8578384F87C3384F83A
:101808007F532046FFF70CFCCBE73D4C404825684A
:10181800102100F089FD23685B1B092BFBD91021DF
:101828003B4800F083FD00253A48356000F0C0FAD7
:101838003948FFF771FCC4B2002CB2D0374B1A6894
:10184800374B1340B3F1005F50D1364800F0B0FA7F
:10185800032C96D0344B1B6801331DD0334C3449CC
:1018680065722046FEF700FE32482146FEF722FE4A
:1018780090B1264F3846FFF7BDFB214687F80D5239
:1018880087F83F522C48FEF7EFFD2C482C49FEF70D
:10189800FFFE3846FFF7C4FB00233360184B196876
:1018A8001A68521A092AFBD900214FF0804000F02B
:1018B8007BFF1C2300248DF8043001A805238DF834
:1018C80006308DF805408DF8074000F057FD1D4B98
:1018D8001A681C601C4B1D4A1B6813601C4A136065
:1018E8000E4A126882F3088898475AE7194800F0A8
:1018F8005FFA56E7A4050020A00500209C050020FB
:1019080090050020000C0048040500202C0600204B
:101918000010004828290008D005002000500008C1
:101928000000FE2F3929000800F00708A80500204C
:10193800482900080DF20708390800206B08002024
:101948005229000810E000E0045000081C0600209E
:101958002006002057290008DFF840D0002100F0B9
:1019680004B80F4B5B58435004310E480E4B4218D5
:101978009A42FFF4F6AF0D4A00F003B8002342F88C
:10198800043B0B4B9A42FFF4F9AF00F0A1F8FEF7C5
:101998005BFCFFF75DFDFFF7FEBF0000FFFF0020C7
:1019A8009029000800000020400500204005002084
:1019B800380B0020FFF7FEBF7047FEE7FEE7FEE7A3
:1019C800FEE7704770477047324B1A68013210B50E
:1019D8001A60314A1168013111601A68142A1C46CC
:1019E80003D12E48102100F0A1FC22680A23B2FB83
:1019F800F3F403FB14245CB929484FF480710122E5
:101A080000F096FC26484FF48071224600F090FCC6
:101A1800214B1A68632A05D9224A116801311160DD
:101A280000221A60204B1B68012B08D1194B1A6839
:101A38006423B2FBF3F103FB112323B310BD022B84
:101A480026D1144B1A680A23B2FBF3F103FB1123C6
:101A5800CBB110BD15484FF4807100F065FC1348F8
:101A68004FF4007100F062FC09E010484FF48071F7
:101A780000F05CFC0D484FF4007100F055FC236841
:101A88000133236010BD0A4C2368DB07E2D4ECE77E
:101A980010BD00BF900500209405002000100048EC
:101AA800000400489805002004050020000C0048A8
:101AB800BC050020044B1A680AB9044A1A601A685F
:101AC8001018186010467047C0050020380B002019
:101AD800384B1A6842F001021A605968364A0A40BF
:101AE8005A601A6822F0847222F480321A601A68E6
:101AF80022F480221A605A6822F4FE025A60DA6AD6
:101B080022F00F02DA62196B2C4A82B00A401A637B
:101B180000229A60009201921A6842F480321A6098
:101B28001A6802F400320192009A01320092019A76
:101B38001AB9009AB2F5A04FF2D11E4B1B6813F4E4
:101B4800003318BF01230193019B012B04D01C4BC8
:101B58004FF000629A602AE01A4B12221A60A3F52D
:101B680080535A685A605A685A605A6842F48062C8
:101B78005A605A6822F47C125A605A6842F4E81291
:101B88005A601A6842F080721A601968094A890115
:101B9800FBD5536823F003035360536843F00203F3
:101BA8005360536803F00C03082BFAD1CFE702B057
:101BB800704700BF001002400CC07FF8CCFC00FF4B
:101BC80000ED00E000200240064A08B513681BB18A
:101BD80003F8010B136008BD034B1B6803B198475A
:101BE80008BD00BFC40500202406002010B5441E0F
:101BF80001E0FFF7E9FF14F8010F0028F9D110BD43
:101C08002DE9F04F044685B00D464FF00A0800E074
:101C180035462078002800F0C880252801D00134F6
:101C280068E06078302803D1A0780123033407E006
:101C38002D2802D00234002302E0A07802230334C6
:101C4800002704E008FB070714F8010B303FA0F158
:101C58003002092AF6D96C2801D04C2803D114F88F
:101C6800010B43F00403002800F09F80602886BF22
:101C7800A0F12002D2B202464F2A42D006D8432A07
:101C880030D0442A09D0422A34D137E0552A04D02A
:101C9800582A2CD0532A2DD102E04FF00A0E32E0F8
:101CA8002E1DD5F80090002500E0013519F8052013
:101CB800002AFAD104E02020FFF786FF554601E00C
:101CC800980704D4BD4205F1010AF4D355464846A5
:101CD800FFF78CFF03E02020FFF776FF0135BD42B8
:101CE800F9D395E728782E1DFFF76EFF90E74FF0A0
:101CF800100E08E0FFF768FF2E4689E74FF0020E46
:101D080001E04FF0080E2E1D442A296804D100294D
:101D180002DA494243F00803002200E02A46B1FBF8
:101D2800FEFC0EFB1C11CDB2092D614607D978289F
:101D380014BF4FF007094FF027094D44EDB2303575
:101D48000DF80250551CBCF1000F02D0102DE5D142
:101D58000F22190705D504A94D192D2105F8101CC6
:101D6800951C13F0010F0CBF4FF0200B4FF0300BF8
:101D78009B07A94604D508E05846FFF725FFD1463A
:101D8800B94509F1010AF7D3D146013D1DF805000F
:101D9800FFF71AFF002DF8D104E02020FFF714FF09
:101DA80009F10109B945F8D332E705B0BDE8F08F6C
:101DB8000FB407B504A951F8040B0191FFF720FFF0
:101DC800BDE80E4004B0704738B50546064C04E03F
:101DD8002846FFF71BFA012804D0013CF8D14FF040
:101DE800FF3038BD002038BD010010002DE9F04F4C
:101DF8008A4E8B4F89B00023039399461C461D4693
:101E080006F103080DF10B00FFF7DEFF002840F094
:101E1800F0809DF80B30042B4AD005D8012B16D042
:101E2800022B40F0E68015E0412B32D0612B30D0F8
:101E3800182B40F0DE800DF10B00FFF7C5FF0028DE
:101E480040F0D7809DF80B30182B2FD0D1E04FF001
:101E5800800A01E04FF4806A33704FF0010B0AF1F9
:101E680004020CE006EB0B000192FFF7ADFF019AAC
:101E7800002840F0BE800BF1010B1FFA8BFB5A457E
:101E8800664BEFDA99785A78C943C9B28A4209D0C1
:101E9800AFE01820FFF7E4F81820FFF7E1F86FF03B
:101EA8000200B8E0BAF1000F02D007E00620AAE06D
:101EB80006200024FFF7D4F82546A3E7E9B28A42B2
:101EC80003D01520FFF7CCF891E0002D5DD1F37811
:101ED8001BB955E0C254013301E052482B469A1908
:101EE80008EB0301D27812B1B3F5807FF2D14D48E7
:101EF8000022C254134601E0C2540133CA1804A890
:101F08005278202A01D0102BF6D108AAD318002421
:101F180003A903F8104CFFF7F7FA0398B0F5002F60
:101F280008DB1820FFF79CF81820FFF799F84FF006
:101F3800FF3070E0FFF71AF83B4B3C4A186014601A
:101F48009A461446DFF8F0900AE0394B188802FBED
:101F5800007000F079F9226889F8000001322260E7
:101F68002268DAF800108A4203D299F80030042B6C
:101F7800EBD00620FFF774F84320FFF771F833E041
:101F88000620FFF76DF8039845E02A4A03331360EB
:101F98003C46914618E0D9F800302046196800F010
:101FA8002BF9D9F8003054F8041B1A68914208D06C
:101FB8001820FFF755F81820FFF752F86FF00100C6
:101FC80029E00433C9F80030E31B534504DB06203D
:101FD800FFF746F8274607E0039B03F1006303F584
:101FE8005C33A342D7D8F2E701354FF0010900244A
:101FF80008E7B9F1000F00D00134052C07DD1820DF
:10200800FFF72EF81820FFF72BF8002003E04320F5
:10201800FFF726F8F6E609B0BDE8F08F2C06002099
:1020280000700308310A0020C8050020CC050020F4
:102038000E050020280600200C05002041F48071C0
:1020480049004000CB0548BF0130C20344BF80F4BB
:10205800815080F00100CB03F2D580B2704738B5CB
:1020680004464518002003E014F8011BFFF7E6FFBB
:10207800AC4280B2F8D30021FFF7E0FF0021BDE8B1
:102088003840FFF7DBBF0000024B9A6842F00102BC
:102098009A6070470030024010B50023054C03E0F9
:1020A80050F82320013322608B42F9D1014B186884
:1020B80010BD00BF00300240044B1A69120604D557
:1020C800034A5A6002F188325A6070470020024081
:1020D80023016745044B1A69910504D4034A9A60A1
:1020E80002F188329A607047002002402301674558
:1020F800024B1A6922F400721A61704700200240EC
:10210800024B1A6942F400521A61704700200240DB
:10211800014B186A704700BF00200240034BDB697F
:1021280013F0060F0CBF002001207047002002406A
:10213800014BD860704700BF00200240084BDA68A6
:10214800D20709D4DA68D00608D4DB6813F0040F84
:102158000CBF0420032070470120704702207047FD
:102168000020024010B50446FFF7E8FF02E0FFF741
:10217800E5FF013C012803D1002CF8D1052010BD52
:10218800002C08BF052010BD38B505464FF4302097
:10219800FFF7E8FF04282AD1154C236943F02003F0
:1021A8002361236943F0400323614FF43020FFF794
:1021B800D9FF042815D1236923F02003236123695B
:1021C80043F0100323610B4B4FF430201D80FFF7C1
:1021D800C9FF052801D1052038BD236923F0100364
:1021E80004E00528F7D0236923F02003236138BDD4
:1021F8000020024000F8FF1F73B5002306464FF485
:1022080030200D460193FFF7ADFF042818D10D4C7F
:10221800236943F0010323614FF430203580FFF731
:10222800A1FF042808D102360196019B2D0C1D80C0
:102238004FF43020FFF796FF236923F00103236151
:102248007CBD00BF0020024038B505464FF4302061
:10225800FFF788FF042811D1094C236943F00203D2
:1022680023616561236943F0400323614FF4302003
:10227800FFF778FF236923F00203236138BD00BF0D
:10228800002002402DE9F04300230F681A464FF062
:10229800010C03240CFA02F606EA0705B5423DD103
:1022A8000E7906F1FF38B8F1010F20D8D0F8088070
:1022B80004FA03F928EA0908C0F8088091F80580AB
:1022C800D0F8089008FA03F848EA0908C0F8088026
:1022D800B0F804801FFA88F828EA050585808D790A
:1022E800B0F8048005FA02F545EA08058580D0F8BB
:1022F800008004FA03F5ED4305EA0808C0F80080F9
:10230800D0F8008006FA03F646EA08060660C668B2
:102318003540CE7906FA03F63543C56001320233FB
:10232800102AB7D1BDE8F0838161704701857047F5
:102338000AB1816170470185704701F00703C90838
:10234800083130B59B0050F821500F2404FA03F4EB
:1023580025EA040440F8214050F8214002FA03F22B
:10236800144340F8214030BD40F0BF60024B40F4B8
:102378000030D860704700BF00ED00E0C37810B5AA
:10238800FBB1164B4178DB688478DB43C3F3022347
:10239800C3F1040201FA02F10F2222FA03F20378D0
:1023A800224003F160430A4303F56143120183F8B5
:1023B800002303780122590903F01F0302FA03F3EB
:1023C80007E003780122590903F01F0302FA03F317
:1023D8002031034A42F8213010BD00BF00ED00E073
:1023E80000E100E021F0604121F07F01014B08434A
:1023F8009860704700ED00E0AE4B5A6802F00C029E
:10240800042A2DE9F04305D0082A06D0AA4B036018
:10241800B2B916E0A84B036012E059685C68C1F3D2
:1024280083410231E20301D4A44A06E0DA6AA24BEE
:1024380002F00F020132B3FBF2F24A43026000E0FD
:1024480000229C4F9E4D7B68C3F30313E95C03682D
:1024580023FA01F444607E68C6F30226AE5D24FACE
:1024680006F68660D7F804C0CCF3C22C15F80C50D9
:10247800DFF850C224FA05F4C460D7F82C80C8F3FA
:10248800041808F00F0918F0100F3CF819C01FFACB
:102498008CFC07D0BCF1000F04D0B2FBFCFCC0F8E8
:1024A80010C000E00361FF6ADFF818C2C7F34427D1
:1024B80007F00F0817F0100F3CF818C01FFA8CFC33
:1024C80007D0BCF1000F04D0B2FBFCFCC0F814C06C
:1024D80000E04361DFF8DCC1DCF8308018F0100F51
:1024E8000ABFDFF8D4818361C0F81880DCF830C0F7
:1024F8001CF0200F0ABFDFF8C0C1C361C0F81CC0C0
:10250800DFF8B0C1DCF8308018F0400F0ABFDFF800
:10251800A8810362C0F82080DCF830C01CF4807FFA
:1025280008D0934206D18D4204D14FEA430CC0F83B
:1025380024C000E04462DFF888C11CF80770DFF8A7
:1025480074C1DCF8308018F0807F08D0934206D13F
:102558008F4204D14FEA4308C0F8308000E0066398
:10256800DCF830C01CF0007F06D0934204D18F42C3
:1025780002D15F00476300E046634E4FD7F830C092
:102588001CF4805F08D0934206D18D4204D14FEAF3
:10259800430CC0F828C000E084623F6BBF0506D535
:1025A800934204D18D4202D15F00C76200E0C46249
:1025B800404FD7F830C01CF4806F08D0934206D142
:1025C8008D4204D14FEA430CC0F84CC000E0C4640B
:1025D8003F6B3F0506D5934204D18D4202D15F007F
:1025E800076500E00465334FD7F830C01CF4005F7E
:1025F80008D0934206D18D4204D14FEA430CC0F86B
:1026080054C000E004653F6B17F4004F06D09342B6
:1026180004D18D4202D15A00826500E08465254AC2
:10262800116B890701D1846315E0116B01F0030177
:10263800012901D183630EE0116B01F00301022926
:1026480002D14FF4004105E0116B01F003010329A9
:1026580001D119498163126B164912F4403F01D127
:10266800C66318E00A6B02F44032B2F5803F01D12C
:10267800C36310E00A6B02F44032B2F5003F02D1A6
:102688004FF4004206E00A6B02F44032B2F5403FD4
:1026980001D1094AC263074A116B11F4402F01D1D5
:1026A800066422E0116B01F44021B1F5802F0BD1B3
:1026B80003641AE00010024000127A0000093D008D
:1026C8003005002010050020116B01F44021B1F500
:1026D800002F02D14FF4004106E0116B01F44021B4
:1026E800B1F5402F01D122490164126B214912F43E
:1026F800401F01D1466418E00A6B02F44012B2F59B
:10270800801F01D1436410E00A6B02F44012B2F555
:10271800001F02D14FF4004206E00A6B02F4401297
:10272800B2F5401F01D1124A4264124A116B11F4EA
:10273800400F02D18664BDE8F083116B01F44001BB
:10274800B1F5800F00D10FE0136B03F44003B3F52C
:10275800000F02D14FF4004306E0136B03F440036B
:10276800B3F5400F01D1024B8364BDE8F08300BF8D
:1027780000127A0000100240044B5A6909B1104354
:1027880001E022EA00005861704700BF00100240D3
:10279800044B9A6909B1104301E022EA00009861EC
:1027A800704700BF00100240038819B19BB243F084
:1027B800010303E023F001031B041B0C0380704793
:1027C800036823F0010330B5036042688B680D4647
:1027D80022F44052134343606A68EB6801681A4365
:1027E8002B6921F4B05121F00C0113430B43036012
:1027F80082686B6922F44072134399B0836004467F
:1028080001A8FFF7F9FD184B9C4201D10F9A0EE081
:10281800164B9C4201D1109A09E0154B9C4201D1FC
:10282800119A04E0134B9C420CBF129A139A236826
:10283800296813F4004F18BF5200B2FBF1F301FBF3
:1028480013212A68B1EB520F226828BF0133120402
:1028580006D54FF6F072C3F342011A4041EA02036B
:10286800A38119B030BD00BF0038014000440040CA
:1028780000480040004C0040036811B143F00103D8
:1028880001E023F0010303607047C905C90D018504
:102898007047C36919420CBF00200120704700002F
:1028A800F8B500BFF8BC08BC9E467047F8B500BF35
:0828B800F8BC08BC9E46704705
:1028C0000D0A50726F6772616D6D696E6720436F9C
:1028D0006D706C65746564205375636365737366AE
:1028E000756C6C79210D0A2D2D2D2D2D2D2D2D2D55
:1028F0002D2D2D2D2D2D2D2D2D2D2D2D2D2D2D2D08
:102900002D2D2D2D2D2D2D0D0A00686F742E760086
:102910000D0A4C6F6164696E672000696574002E52
:102920002E2E200D0A0D0A005645524946592049BF
:102930004D414745202E2E2E0020535543434553ED
:1029400053212121210D0A00656D6265642E636F9C
:102950006D00393030300020494E56414C494420FA
:10296000494D414745205349474E2C205245545527
:10297000524E20424F4F54204C4F414445520D0A75
:0829800000000000430000000C
:042988001102000830
:04298C00E10100085D
:102990000400002000000000000000000000000013
:1029A0000000000000000000000000000000000027
:1029B0000000000084290008000000000000000062
:1029C0000000000000000000000000000000000007
:1029D00000000000000000000000000000000000F7
:1029E00000000000000000000000000000000000E7
:1029F00000000000000000000000000000000000D7
:102A000000000000000000000000000000000000C6
:102A100000000000000000000000000000000000B6
:102A200000000000000000000000000000000000A6
:102A30000000000000000000000000000000000096
:102A40000000000000000000000000000000000086
:102A50000000000000000000000000000000000076
:102A60000000000000000000000000000000000066
:102A70000000000000000000000000000000000056
:102A8000000000000000000000000000F400002032
:102A9000F4000020FC000020FC00002004010020C5
:102AA000040100200C0100200C0100201401002072
:102AB000140100201C0100201C0100202401002022
:102AC000240100202C0100202C01002034010020D2
:102AD000340100203C0100203C0100204401002082
:102AE000440100204C0100204C0100205401002032
:102AF000540100205C0100205C01002064010020E2
:102B0000640100206C0100206C0100207401002091
:102B1000740100207C0100207C0100208401002041
:102B2000840100208C0100208C01002094010020F1
:102B3000940100209C0100209C010020A4010020A1
:102B4000A4010020AC010020AC010020B401002051
:102B5000B4010020BC010020BC010020C401002001
:102B6000C4010020CC010020CC010020D4010020B1
:102B7000D4010020DC010020DC010020E401002061
:102B8000E4010020EC010020EC010020F401002011
:102B9000F4010020FC010020FC01002004020020C0
:102BA000040200200C0200200C020020140200206D
:102BB000140200201C0200201C020020240200201D
:102BC000240200202C0200202C02002034020020CD
:102BD000340200203C0200203C020020440200207D
:102BE000440200204C0200204C020020540200202D
:102BF000540200205C0200205C02002064020020DD
:102C0000640200206C0200206C020020740200208C
:102C1000740200207C0200207C020020840200203C
:102C2000840200208C0200208C02002094020020EC
:102C3000940200209C0200209C020020A40200209C
:102C4000A4020020AC020020AC020020B40200204C
:102C5000B4020020BC020020BC020020C4020020FC
:102C6000C4020020CC020020CC020020D4020020AC
:102C7000D4020020DC020020DC020020E40200205C
:102C8000E4020020EC020020EC020020F40200200C
:102C9000F4020020FC020020FC02002004030020BB
:102CA000040300200C0300200C0300201403002068
:102CB000140300201C0300201C0300202403002018
:102CC000240300202C0300202C03002034030020C8
:102CD000340300203C0300203C0300204403002078
:102CE000440300204C0300204C0300205403002028
:102CF000540300205C0300205C03002064030020D8
:102D0000640300206C0300206C0300207403002087
:102D1000740300207C0300207C0300208403002037
:102D2000840300208C0300208C03002094030020E7
:102D3000940300209C0300209C030020A403002097
:102D4000A4030020AC030020AC030020B403002047
:102D5000B4030020BC030020BC030020C4030020F7
:102D6000C4030020CC030020CC030020D4030020A7
:102D7000D4030020DC030020DC030020E403002057
:102D8000E4030020EC030020EC030020F403002007
:102D9000F4030020FC030020FC03002004040020B6
:102DA000040400200C0400200C0400201404002063
:102DB000140400201C0400201C0400202404002013
:102DC000240400202C0400202C04002034040020C3
:102DD000340400203C0400203C0400204404002073
:102DE000440400204C0400204C0400205404002023
:102DF000540400205C0400205C04002064040020D3
:102E0000640400206C0400206C0400207404002082
:102E1000740400207C0400207C0400208404002032
:102E2000840400208C0400208C04002094040020E2
:102E3000940400209C0400209C040020A404002092
:102E4000A4040020AC040020AC040020B404002042
:102E5000B4040020BC040020BC040020C4040020F2
:102E6000C4040020CC040020CC040020D4040020A2
:102E7000D4040020DC040020DC040020E404002052
:102E8000E4040020EC040020EC040020FFFFFFFF1E
:102E9000000002000100000000A24A040400000833
:102EA000010002000400060008000A000C001000E7
:102EB0002000400080000001000000000000000031
:102EC00000000000010203040102030406070809D0
:040000050800196175
:00000001FF
